:100000000C945A000C9482000C9482000C94820090
:100010000C9482000C9482000C9482000C94820058
:100020000C9482000C9482000C9482000C94820048
:100030000C9482000C9482000C9482000C94820038
:100040000C9454080C9482000C94C80A0C94FA0A7C
:100050000C9482000C9482000C9482000C94820018
:100060000C9427070C948200000000080002010095
:100070000003040700000000000000000102040863
:100080001020408001020408102001020408102002
:10009000040404040404040402020202020203032E
:1000A0000303030300000000250028002B00990231
:1000B0003D062A0B11241FBECFEFD8E0DEBFCDBF17
:1000C00014E0A0E0B1E0E6E6F0E202C005900D9297
:1000D000A830B107D9F725E0A8E0B4E001C01D922F
:1000E000A937B207E1F710E0C4EBD0E004C02297D3
:1000F000FE010E942610CE3AD107C9F70E946E0B6E
:100100000C9431100C94000026E040E855E260E0C9
:1001100070E08CED94E00E94660A60E571E08CED81
:1001200094E00E94C80B67E671E08CED94E00C94BB
:10013000C80BCF93DF93CDB7DEB7C05DD1090FB643
:10014000F894DEBF0FBECDBF6EE771E08CED94E09A
:100150000E94C80B4AE26CE070E088E094E00E94E4
:10016000AF0265E971E08CED94E00E94C80B6CE091
:1001700070E088E094E00E94EE03182F63EB71E0DA
:100180008CED94E00E94BB0B4AE050E0612F8CEDB7
:1001900094E00E94920C8CED94E00E94C40B6EEBF4
:1001A00071E08CED94E00E94C80B48EE5DEF6FE0CB
:1001B00070E088E094E00E94910368ED71E08CEDBE
:1001C00094E00E94C80B6FE070E088E094E00E9429
:1001D000D2048C0163EB71E08CED94E00E94BB0BC8
:1001E0004AE050E0B8018CED94E00E94A90C8CED3F
:1001F00094E00E94C40B69EF71E08CED94E00E94E2
:10020000C80B29E73FE542E554EC64E170E088E083
:1002100094E00E94A40368E172E08CED94E00E94F7
:10022000C80B64E170E088E094E00E94E1046B0197
:100230007C0163EB71E08CED94E00E94BB0B2AE043
:1002400030E0B701A6018CED94E00E94BF0C8CED6C
:1002500094E00E94C40B66E372E08CED94E00E948F
:10026000C80B27EC35E34AE352E46FE170E088E025
:1002700094E00E94A40365E572E08CED94E00E9496
:10028000C80B6FE170E088E094E00E94E1046B012C
:100290007C0163EB71E08CED94E00E94BB0B2AE0E3
:1002A00030E0B701A6018CED94E00E94BF0C8CED0C
:1002B00094E00E94C40B63E772E08CED94E00E942E
:1002C000C80B23EC35EF48E450E468E270E088E0C6
:1002D00094E00E94BC036CE872E08CED94E00E9414
:1002E000C80B68E270E088E094E00E94F2046B01C1
:1002F0007C0163EB71E08CED94E00E94BB0B2AE083
:1003000030E0B701A6018CED94E00E94BC0D8CEDAD
:1003100094E00E94C40B6BEA72E08CED94E00E94C2
:10032000C80B2BED3FE049E450E462E370E088E065
:1003300094E00E94D4036DEC72E08CED94E00E9496
:10034000C80B62E370E088E094E00E9403056B0153
:100350007C0163EB71E08CED94E00E94BB0B2AE022
:1003600030E0B701A6018CED94E00E94BC0D8CED4D
:1003700094E00E94C40B6DEE72E08CED94E00E945C
:10038000BB0B82E1E7ECF3E0DE01A154BF4F01902B
:100390000D928A95E1F7BE0161547F4F8CED94E098
:1003A0000E94BB0B6CEF72E08CED94E00E94C80BD6
:1003B00022E130E0AE0141545F4F68EC70E088E02C
:1003C00094E00E94EC036DE073E08CED94E00E94F9
:1003D000C80B2EE130E0AE014F555F4F68EC70E086
:1003E00088E094E00E9414056DE273E08CED94E0E7
:1003F0000E94BB0BBE016F557F4F8CED94E00E94B5
:10040000BB0B67E373E08CED94E00E94C80B8CEDAE
:1004100094E00E94C40B69E373E08CED94E00E94C9
:10042000C80B80E5E0E0F1E0DE01AF5ABF4F01907C
:100430000D928A95E1F720E530E0AE014F5A5F4F0B
:1004400068EE73E088E094E00E94460361E673E0A2
:100450008CED94E00E94C80B08EE13E0B80188E030
:1004600094E00E94EE03F82E6FE873E08CED94E0C8
:100470000E94BB0B4AE050E0B8018CED94E00E9472
:100480007D0C61E973E08CED94E00E94BB0B4AE0C7
:1004900050E06F2D8CED94E00E94920C0F5F1F4F87
:1004A000083384E01807D1F68CED94E00E94C40B69
:1004B00066E973E08CED94E00E94C80B40E550E0E3
:1004C00060E270E0CE0101960E942A1020E530E043
:1004D000AE014F5F5F4F68EE73E088E094E00E94EA
:1004E0009704FE0131967F0108EE13E06FE873E098
:1004F0008CED94E00E94BB0B4AE050E0B8018CED1B
:1005000094E00E947D0C61E973E08CED94E00E9420
:10051000BB0BF70161917F014AE050E08CED94E064
:100520000E94920C0F5F1F4F0833F4E01F07F1F693
:10053000FFCF88E094E00C94A402DC01ED91FC91E3
:100540000190F081E02D099420E530E0FC01318339
:10055000208320E2228783E194E00C94AD05FF9292
:100560000F931F93CF93DF938C01EB01F42EFC01CB
:100570006081718183E194E00E94C10583E194E090
:100580000E943A06811127C0F8016081718183E1E0
:1005900094E00E94C1056D2F70E083E194E00E9419
:1005A0009D02BE01772783E194E00E949D026F2D9A
:1005B00083E194E00E946E0583E194E00E943A0694
:1005C00064E170E080E090E0DF91CF911F910F91A6
:1005D000FF900C94C108DF91CF911F910F91FF9074
:1005E0000895AF92BF92CF92DF92EF92FF920F9356
:1005F0001F93CF93DF937C01EB015A016901FC014A
:100600006081718183E194E00E94C10583E194E0FF
:100610000E943A0681112FC0F7016081718183E148
:1006200094E00E94C1056D2F70E083E194E00E9488
:100630009D02BE01772783E194E00E949D02B501EF
:100640006C0D7D1DA80183E194E00E94410583E1CA
:1006500094E00E943A0664E170E080E090E0DF916F
:10066000CF911F910F91FF90EF90DF90CF90BF90AF
:10067000AF900C94C108DF91CF911F910F91FF9023
:10068000EF90DF90CF90BF90AF9008956F927F92E0
:100690008F929F92AF92BF92CF92DF92EF92FF9292
:1006A0000F931F93CF93DF934C016B013A017901B4
:1006B000A12CB12C1E141F042CF5F4012285EE2D63
:1006C0004F2DFFE1EF16F10414F0EEE140E030E0D1
:1006D000C601B9010E94EE0F281B390BCE2FD42F73
:1006E0002C173D070CF4E9018E019501A301B60119
:1006F000C4010E94F102EC1AFD0AAC0EBD1ECC0E24
:10070000DD1ED8CFDF91CF911F910F91FF90EF9019
:10071000DF90CF90BF90AF909F908F907F906F9021
:100720000895CF93DF9300D0CDB7DEB75A834983C6
:1007300022E030E0AE014F5F5F4F0E9446030F9012
:100740000F90DF91CF910895CF93DF9300D000D029
:10075000CDB7DEB729833A834B835C8324E030E056
:10076000AE014F5F5F4F0E9446030F900F900F90B6
:100770000F90DF91CF910895CF93DF9300D000D0F9
:10078000CDB7DEB729833A834B835C8324E030E026
:10079000AE014F5F5F4F0E9446030F900F900F9086
:1007A0000F90DF91CF910895CF93DF9300D000D0C9
:1007B000CDB7DEB729833A834B835C8328E030E0F2
:1007C000AE014F5F5F4F0E9446030F900F900F9056
:1007D0000F90DF91CF9108950C9446030F931F93D0
:1007E000CF93DF93EC018B016881798183E194E001
:1007F0000E94C10583E194E00E943A06882311F02B
:1008000010E034C06881798183E194E00E94C105E1
:10081000612F70E083E194E00E949D02B801772788
:1008200083E194E00E949D0283E194E00E943A06F5
:100830008111E6CF6881798141E050E083E194E065
:100840000E943706C0E0D0E010E083E194E00E940F
:1008500016051816190654F4CD2B41F483E194E0E3
:100860000E941E05182FC1E0D0E0EFCF812FDF914D
:10087000CF911F910F910895AF92BF92CF92DF92C7
:10088000EF92FF920F931F93CF93DF93EC017B01C5
:100890006A0159016881798183E194E00E94C10570
:1008A00083E194E00E943A06811136C06881798123
:1008B00083E194E00E94C1056F2D70E083E194E034
:1008C0000E949D02B701772783E194E00E949D0278
:1008D00083E194E00E943A0681111EC0688179810B
:1008E000A80183E194E00E943706E601CA0DDB1DF2
:1008F0007E0183E194E00E9416051816190664F43F
:10090000CE018E199F098017910734F483E194E09A
:100910000E941E058993EDCFDF91CF911F910F911A
:10092000FF90EF90DF90CF90BF90AF9008956F92BF
:100930007F928F929F92AF92BF92CF92DF92EF926F
:10094000FF920F931F93CF93DF933C015B014A010A
:10095000E901C12CD12C1C161D06ACF47E01C1325C
:10096000D1051CF080E2E82EF12C87019601A4014C
:10097000B501C3010E943C04AE0CBF1CCE0CDF1CB1
:10098000CE19DF09E8CFDF91CF911F910F91FF9032
:10099000EF90DF90CF90BF90AF909F908F907F901F
:1009A0006F900895CF93DF93EC01AC014E5F5F4FE2
:1009B00022E030E00E9497048A819B81DF91CF91F1
:1009C0000895CF93DF93EC01AC014E5F5F4F24E0BD
:1009D00030E00E9497046A817B818C819D81DF9148
:1009E000CF910895CF93DF93EC01AC014E5F5F4F41
:1009F00024E030E00E9497046A817B818C819D8194
:100A0000DF91CF910895CF93DF93EC01AC014E5F5E
:100A10005F4F28E030E00E9497046A817B818C81DF
:100A20009D81DF91CF9108950C94970480914304A8
:100A300090E020914404821B910908952091440480
:100A400080914304281750F4E22FF0E0EB5BFB4F5A
:100A5000808190E02F5F2093440408958FEF9FEFF3
:100A60000895E091440480914304E81730F4F0E0E5
:100A7000EB5BFB4F808190E008958FEF9FEF08952F
:100A80000895CF92DF92EF92FF920F931F93CF932F
:100A9000DF937C01CB018A0120911F04222389F07E
:100AA000EB016B01C40ED51ECC15DD0569F0699113
:100AB000D701ED91FC910190F081E02DC7010995DE
:100AC000F3CF642F0E94FE06C801DF91CF911F91E2
:100AD0000F91FF90EF90DF90CF900895CF93DF9329
:100AE0001F92CDB7DEB7698320911F042223D1F076
:100AF00020912004203240F021E030E0FC013383DB
:100B0000228380E090E015C080912104E82FF0E07E
:100B1000EE5DFB4F998190838F5F809321048093DA
:100B2000200405C061E0CE0101960E94FE0681E02E
:100B300090E00F90DF91CF910895FC011382128213
:100B400048EE53E060E070E044835583668377832A
:100B50008DED93E091838083089510924404109268
:100B6000430410922104109220040C94410681E069
:100B700080931F0460934204109221041092200479
:100B800008950C94B7050F93062F21E0409120049F
:100B900062E274E0809142040E94A7061092210450
:100BA0001092200410921F040F9108958F929F922B
:100BB000AF92BF92CF92DF92EF92FF920F931F936B
:100BC000CF93DF93EC01F62ED42E48015901EE208D
:100BD00019F10E94B7051E2D143008F013E01150D2
:100BE000B8F0E881F98128E0129FB0011124A50135
:100BF000940104C056954795379527956A95D2F785
:100C0000CA01B9010190F081E02DCE010995E7CF2D
:100C100060E0CE010E94C3054D2D413208F040E254
:100C20002C2D65E474E08F2D0E945F061092440421
:100C300080934304DF91CF911F910F91FF90EF902C
:100C4000DF90CF90BF90AF909F908F900895CF92FC
:100C5000EF920F931F93C22EE12C00E010E0980159
:100C60000E94D6051F910F91EF90CF90089521E03B
:100C70000C94270661E00C94C30583E194E00C9486
:100C80009D051092D20481E08093D0041092CF048D
:100C900061E082E10E944D0961E083E10E944D091B
:100CA000E9EBF0E080818E7F808380818D7F80837F
:100CB00088E48093B80085E48093BC0008954132B5
:100CC00008F043C09091D2049111FCCF91E0909331
:100CD000D2042093D0042FEF209365041092AA042D
:100CE000240F2093A9049093D1049091D104880FEC
:100CF000892B8093D1048091CF04813061F41092CC
:100D0000CF048091D1048093BB008091BC0083FD0F
:100D1000F8CF85EC01C085EE8093BC008091D204B1
:100D20008130E1F38091AA04841710F44091AA0461
:100D30002BEA34E0FB01D9018A2F821B841718F4B7
:100D40008D918193F9CF842F089580E008950F93BA
:100D5000413208F04AC09091D2049111FCCF92E048
:100D60009093D2040093D0049FEF90936504109267
:100D7000AA044093A904FB016BEA74E0DB019A2FFB
:100D8000961B941718F491919D93F9CF1092D1046A
:100D90009091D104880F892B8093D1048091CF0446
:100DA000813061F41092CF048091D1048093BB0014
:100DB0008091BC0083FDF8CF85EC01C085EE809367
:100DC000BC00222321F08091D2048230E1F3809193
:100DD00065048F3F61F080916504803251F080910D
:100DE0006504803341F483E007C081E005C080E002
:100DF00003C082E001C084E00F910895613298F44D
:100E00002091D204243089F460938704FC0189E89E
:100E100094E0DC012A2F281B261718F421912D932A
:100E2000F9CF80E0089581E0089582E0089585ED8E
:100E30008093BC008091BC0084FDFCCF1092D20452
:100E4000089585EC8093BC001092D20408951F92FF
:100E50000F920FB60F9211242F933F934F935F93EE
:100E60006F937F938F939F93AF93BF93EF93FF9372
:100E70008091B900887F803609F49EC078F5883269
:100E800009F45DC090F4803109F456C038F4882329
:100E900009F4F5C0883009F44FC0F5C0883109F471
:100EA0004EC0803209F45FC0EEC0803409F46AC0DD
:100EB00058F4803309F457C0883309F0E4C08093B4
:100EC00065040E942107DFC0803509F44FC08835D2
:100ED00009F45DC0883409F0D6C0D3C0883909F45C
:100EE000C4C0A8F4883709F467C038F4883609F418
:100EF00063C0803709F460C0C6C0883809F4B5C043
:100F0000803909F45FC0803809F0BDC05BC0803B08
:100F100009F483C038F4803A09F466C0883A09F4C9
:100F20007CC0B1C0803C09F4A4C0883C09F4A1C0D5
:100F3000883B09F487C0A7C08091D10410C090916C
:100F4000AA048091A904981770F5E091AA0481E0A1
:100F50008E0F8093AA04F0E0E555FB4F80818093CB
:100F6000BB0085EC83C0809365048BC0E091AA042C
:100F700081E08E0F8093AA048091BB00F0E0E555DC
:100F8000FB4F80839091AA048091A9046BC0E091EB
:100F9000AA0481E08E0F8093AA048091BB00F0E048
:100FA000E555FB4F80838091D00481116AC081E0B8
:100FB0008093CF0484EA5EC083E08093D2041092D1
:100FC0006604CFCF80916604803208F04EC0E09175
:100FD000660481E08E0F809366048091BB00F0E090
:100FE000E959FB4F8083BDCF0E94210780916604A1
:100FF000803230F4E0916604F0E0E959FB4F108252
:101000006091660470E0E091CB04F091CC0487E637
:1010100094E009951092660436C084E08093D2046F
:101020001092880410928704E091CD04F091CE04D0
:10103000099580918704811105C081E08093870420
:1010400010928904E091880481E08E0F80938804D7
:10105000F0E0E757FB4F80818093BB0090918804BC
:1010600080918704981708F47CCF85E88093BC00B2
:101070000AC085EC8093BC001092D20404C0109288
:1010800065040E941707FF91EF91BF91AF919F9167
:101090008F917F916F915F914F913F912F910F9021
:1010A0000FBE0F901F9018951F920F920FB60F92C0
:1010B00011242F933F938F939F93AF93BF9380916E
:1010C000D4049091D504A091D604B091D704309166
:1010D000D30423E0230F2D3720F40196A11DB11D69
:1010E00005C026E8230F0296A11DB11D2093D3044D
:1010F0008093D4049093D504A093D604B093D704DE
:101100008091D8049091D904A091DA04B091DB04C5
:101110000196A11DB11D8093D8049093D904A0938A
:10112000DA04B093DB04BF91AF919F918F913F910F
:101130002F910F900FBE0F901F9018953FB7F89406
:101140008091D8049091D904A091DA04B091DB0485
:1011500026B5A89B05C02F3F19F00196A11DB11D12
:101160003FBF6627782F892F9A2F620F711D811D2F
:10117000911D42E0660F771F881F991F4A95D1F78E
:101180000895CF92DF92EF92FF92CF93DF936B019E
:101190007C010E949E08EB01C114D104E104F1041A
:1011A00089F00E94CE0D0E949E086C1B7D0B683E4C
:1011B000734090F381E0C81AD108E108F108C851E2
:1011C000DC4FEACFDF91CF91FF90EF90DF90CF908F
:1011D0000895789484B5826084BD84B5816084BDAF
:1011E00085B5826085BD85B5816085BDEEE6F0E0A0
:1011F000808181608083E1E8F0E0108280818260FC
:101200008083808181608083E0E8F0E0808181607C
:101210008083E1EBF0E0808184608083E0EBF0E0AC
:10122000808181608083EAE7F0E080818460808350
:1012300080818260808380818160808380818068FA
:1012400080831092C1000895833081F028F48130AA
:1012500099F08230A1F008958730A9F08830B9F074
:101260008430D1F4809180008F7D03C08091800014
:101270008F7780938000089584B58F7702C084B5FE
:101280008F7D84BD08958091B0008F7703C08091D9
:10129000B0008F7D8093B00008950F931F93CF937C
:1012A000DF931F92CDB7DEB7282F30E0F901E85960
:1012B000FF4F8491F901E458FF4F1491F901E05771
:1012C000FF4F04910023C9F0882321F069830E9415
:1012D00024096981E02FF0E0EE0FFF1FEC55FF4F6E
:1012E000A591B4919FB7F8948C91611103C01095AA
:1012F000812301C0812B8C939FBF0F90DF91CF91F1
:101300001F910F910895FC01818D228D90E0805CEA
:101310009F4F821B91098F7399270895FC01918D2E
:10132000828D981731F0828DE80FF11D858D90E048
:1013300008958FEF9FEF0895FC01918D828D98178E
:1013400061F0828DDF01A80FB11D5D968C91928DA9
:101350009F5F9F73928F90E008958FEF9FEF0895A6
:1013600080E29BE0892B49F080E090E0892B29F016
:101370000E94200B81110C9400000895FC01848DC3
:10138000DF01A80FB11DA35ABF4F2C91848D90E0AF
:1013900001968F739927848FA689B7892C93A0898A
:1013A000B1898C9180648C93938D848D981306C041
:1013B0000288F389E02D80818F7D80830895CF930B
:1013C000DF93EC01888D8823C9F0EA89FB8980814D
:1013D00085FD05C0A889B9898C9186FD0FC00FB61F
:1013E00007FCF5CF808185FFF2CFA889B9898C9160
:1013F00085FFEDCFCE010E94BE09E7CFDF91CF91EF
:101400000895CF92DF92FF920F931F93CF93DF93B4
:101410001F92CDB7DEB76C0181E0D60158968C9350
:1014200058975B969C915B975C968C915C97981310
:1014300007C05096ED91FC915197808185FD2EC09B
:10144000F601038D10E00F5F1F4F0F731127F02E71
:10145000F601848DF81211C00FB607FCF9CFD60142
:101460005096ED91FC915197808185FFF1CFC60197
:1014700069830E94BE096981EBCF838DE80FF11D5E
:10148000E35AFF4F6083D6015B960C935B975296AD
:10149000ED91FC915397808180620CC0D6015696E5
:1014A000ED91FC91579760835096ED91FC91519787
:1014B00080818064808381E090E00F90DF91CF9104
:1014C0001F910F91FF90DF90CF900895BF92CF9220
:1014D000DF92EF92FF92CF93DF93EC016A017B01E1
:1014E000B22EE889F98982E08083411581EE5807A0
:1014F00061057105A1F060E079E08DE390E0A7015E
:1015000096010E9402102150310941095109569556
:10151000479537952795211580E1380798F0E88998
:10152000F989108260E874E88EE190E0A7019601E5
:101530000E940210215031094109510956954795E1
:1015400037952795EC85FD853083EE85FF852083D3
:10155000188EEC89FD89B082EA89FB8980818061DF
:101560008083EA89FB89808188608083EA89FB899E
:10157000808180688083EA89FB8980818F7D808378
:10158000DF91CF91FF90EF90DF90CF90BF900895C3
:101590001F920F920FB60F9211242F938F939F9348
:1015A000EF93FF93E091EC04F091ED048081E091E2
:1015B000F204F091F30482FD12C090818091F50451
:1015C0008F5F8F732091F604821751F0E091F5043C
:1015D000F0E0E452FB4F958F8093F50401C08081C9
:1015E000FF91EF919F918F912F910F900FBE0F90D0
:1015F0001F9018951F920F920FB60F9211242F93E0
:101600003F934F935F936F937F938F939F93AF938A
:10161000BF93EF93FF938CED94E00E94BE09FF917E
:10162000EF91BF91AF919F918F917F916F915F915A
:101630004F913F912F910F900FBE0F901F901895D3
:101640008CED94E00E94830921E0892B09F420E0CD
:10165000822F08951092DF041092DE0488EE93E04A
:10166000A0E0B0E08093E0049093E104A093E20452
:10167000B093E3048DEE93E09093DD048093DC045B
:1016800085EC90E09093E9048093E80484EC90E08A
:101690009093EB048093EA0480EC90E09093ED0447
:1016A0008093EC0481EC90E09093EF048093EE043F
:1016B00082EC90E09093F1048093F00486EC90E04B
:1016C0009093F3048093F2041092F5041092F604C0
:1016D0001092F7041092F804089508950E94E90802
:1016E0000E946D0B0E948400C0EBD9E00E9499001B
:1016F0002097E1F30E94B009F9CFCF92DF92EF92E9
:10170000FF920F931F93CF93DF937C016A01EB014C
:1017100000E010E00C151D0571F06991D701ED9105
:10172000FC910190F081E02DC7010995892B19F0FA
:101730000F5F1F4FEFCFC801DF91CF911F910F9126
:10174000FF90EF90DF90CF9008956115710581F0C3
:10175000DB010D900020E9F7AD0141505109461B16
:10176000570BDC01ED91FC910280F381E02D09948F
:1017700080E090E008950C94A50BDC01ED91FC91C4
:101780000190F081E02D099469EF73E00C94A50BB2
:101790000F931F93CF93DF93EC010E94A50B8C0155
:1017A000CE010E94C40B800F911FDF91CF911F913A
:1017B0000F9108958F929F92AF92BF92CF92DF9236
:1017C000EF92FF920F931F93CF93DF93CDB7DEB7C6
:1017D000A1970FB6F894DEBF0FBECDBF7C01C42E1B
:1017E000E52FCB01D22E19A221E02D1510F02AE011
:1017F000D22E8E010F5D1F4F8D2C912CA12CB12C60
:101800006C2D7E2FA50194010E9402108C2DD29E7A
:1018100080191124015011098A3014F4805D01C02F
:10182000895CF8018083211531054105510521F0BE
:10183000C22EE32FCA01E4CFB801C7010E94A50B55
:10184000A1960FB6F894DEBF0FBECDBFDF91CF914A
:101850001F910F91FF90EF90DF90CF90BF90AF90CE
:101860009F908F900895CF92DF92EF92FF920F9307
:101870001F93CF93DF93EC016A017B0121153105A2
:1018800079F4E881F9810190F081E02D642FDF91F6
:10189000CF911F910F91FF90EF90DF90CF9009941F
:1018A0002A303105E9F477FF1AC06DE20E94BD0BC2
:1018B0008C0144275527BA014C195D096E097F092F
:1018C0002AE0CE010E94DA0B800F911FDF91CF91A9
:1018D0001F910F91FF90EF90DF90CF9008952AE035
:1018E000B701A601CE01DF91CF911F910F91FF901B
:1018F000EF90DF90CF900C94DA0B9A01AB01662742
:1019000057FD6095762F0C94330C2115310541F469
:10191000DC01ED91FC910190F081E02D642F0994A0
:101920000C94DA0B0F931F93CF93DF93EC019A0182
:10193000462F50E060E070E00E94850C8C01CE01E3
:101940000E94C40B800F911FDF91CF911F910F91C7
:1019500008950F931F93CF93DF93EC019A01AB018E
:1019600060E070E00E94850C8C01CE010E94C40BE7
:10197000800F911FDF91CF911F910F9108950F93C9
:101980001F93CF93DF93EC010E94850C8C01CE0155
:101990000E94C40B800F911FDF91CF911F910F9177
:1019A00008954F925F926F927F928F929F92AF9223
:1019B000BF92CF92DF92EF92FF920F931F93CF933C
:1019C000DF93EC016A017B01B22E9A01AB01C701E2
:1019D000B6010E94EA0F882319F06CEF73E027C06C
:1019E00026013701E89477F82FEF3FEF4FE75FE7E5
:1019F000C301B2010E94EA0F81110DC02FEF3FEF2A
:101A00004FE75FE7C301B2010E94340E18161CF4C1
:101A100060E074E00CC02FEF3FEF4FE75FE4C701D9
:101A2000B6010E94830F1816ACF464E074E0CE0196
:101A3000DF91CF911F910F91FF90EF90DF90CF90AA
:101A4000BF90AF909F908F907F906F905F904F90DE
:101A50000C94A50B2FEF3FEF4FE75FECC701B601EA
:101A60000E94340E87FDE1CF20E030E0A901C701DC
:101A7000B6010E94340E87FF0AC06DE2CE010E94BB
:101A8000BD0B8C01F7FAF094F7F8F09402C000E077
:101A900010E0A12C60E070E080E09FE3AB1441F027
:101AA00020E030E040E251E40E94380EA394F6CFEB
:101AB0009B01AC01C701B6010E94D00D6B017C01F6
:101AC0000E94A50E2B013C010E94D10E9B01AC018E
:101AD000C701B6010E94CF0D6B017C012AE0B30162
:101AE000A201CE010E94DA0B080F191FBB2039F0AA
:101AF0006BE273E0CE010E94A50B080F191F7B2C2F
:101B0000772041F120E030E040E251E4C701B60126
:101B10000E94870F6B017C010E94A00E4B01AA243A
:101B200097FCA094BA2C2AE030E0B501A401CE01C4
:101B30000E94330C080F191FC501B4010E94D30E77
:101B40009B01AC01C701B6010E94CF0D6B017C0166
:101B50007A94D6CFC801DF91CF911F910F91FF905A
:101B6000EF90DF90CF90BF90AF909F908F907F903D
:101B70006F905F904F9008950F931F93CF93DF93D3
:101B8000EC010E94D10C8C01CE010E94C40B800F8D
:101B9000911FDF91CF911F910F9108950895505893
:101BA000BB27AA270ED075C166D130F06BD120F0CB
:101BB00031F49F3F11F41EF45BC10EF4E095E7FB96
:101BC00051C1E92F77D180F3BA17620773078407F1
:101BD000950718F071F49EF58FC10EF4E0950B2E69
:101BE000BA2FA02D0B01B90190010C01CA01A0016F
:101BF0001124FF27591B99F0593F50F4503E68F1CA
:101C00001A16F040A22F232F342F4427585FF3CF0A
:101C1000469537952795A795F0405395C9F77EF4DB
:101C20001F16BA0B620B730B840BBAF09150A1F024
:101C3000FF0FBB1F661F771F881FC2F70EC0BA0FAA
:101C4000621F731F841F48F4879577956795B79532
:101C5000F7959E3F08F0B3CF9395880F08F099272A
:101C6000EE0F979587950895D9D008F481E00895EF
:101C70000CD00FC107D140F0FED030F021F45F3F0F
:101C800019F0F0C0511139C1F3C014D198F3992360
:101C9000C9F35523B1F3951B550BBB27AA27621730
:101CA0007307840738F09F5F5F4F220F331F441F75
:101CB000AA1FA9F333D00E2E3AF0E0E830D09150AD
:101CC0005040E695001CCAF729D0FE2F27D0660F9A
:101CD000771F881FBB1F261737074807AB07B0E8D9
:101CE00009F0BB0B802DBF01FF2793585F4F2AF0EF
:101CF0009E3F510568F0B6C000C15F3FECF3983ECF
:101D0000DCF3869577956795B795F7959F5FC9F74B
:101D1000880F911D9695879597F90895E1E0660FD4
:101D2000771F881FBB1F621773078407BA0720F04D
:101D3000621B730B840BBA0BEE1F88F7E0950895B6
:101D400004D06894B111D9C00895BCD088F09F57D1
:101D500090F0B92F9927B751A0F0D1F0660F771FF7
:101D6000881F991F1AF0BA95C9F712C0B13081F0D7
:101D7000C3D0B1E00895C0C0672F782F8827B85F1F
:101D800039F0B93FCCF3869577956795B395D9F738
:101D90003EF490958095709561957F4F8F4F9F4F42
:101DA0000895E89409C097FB3EF49095809570954E
:101DB00061957F4F8F4F9F4F9923A9F0F92F96E997
:101DC000BB279395F695879577956795B795F1110C
:101DD000F8CFFAF4BB0F11F460FF1BC06F5F7F4FA9
:101DE0008F4F9F4F16C0882311F096E911C07723BB
:101DF00021F09EE8872F762F05C0662371F096E8C4
:101E0000862F70E060E02AF09A95660F771F881F92
:101E1000DAF7880F9695879597F90895990F000836
:101E2000550FAA0BE0E8FEEF16161706E807F907AC
:101E3000C0F012161306E407F50798F0621B730B47
:101E4000840B950B39F40A2661F0232B242B252BC8
:101E500021F408950A2609F4A140A6958FEF811D6B
:101E6000811D089597F99F6780E870E060E008950C
:101E70009FEF80EC089500240A94161617061806A2
:101E80000906089500240A9412161306140605067E
:101E90000895092E0394000C11F4882352F0BB0F0F
:101EA00040F4BF2B11F460FF04C06F5F7F4F8F4F72
:101EB0009F4F089557FD9058440F551F59F05F3FAD
:101EC00071F04795880F97FB991F61F09F3F79F05C
:101ED00087950895121613061406551FF2CF4695DE
:101EE000F1DF08C0161617061806991FF1CF869560
:101EF0007105610508940895E894BB276627772744
:101F0000CB0197F908958ADF08F48FEF08950BD07D
:101F1000C0CFB1DF28F0B6DF18F0952309F0A2CFCB
:101F2000A7CF1124EACFC6DFA0F3959FD1F3950F79
:101F300050E0551F629FF001729FBB27F00DB11D4D
:101F4000639FAA27F00DB11DAA1F649F6627B00DDD
:101F5000A11D661F829F2227B00DA11D621F739FC6
:101F6000B00DA11D621F839FA00D611D221F749FD4
:101F70003327A00D611D231F849F600D211D822F1B
:101F8000762F6A2F11249F5750408AF0E1F0882362
:101F90004AF0EE0FFF1FBB1F661F771F881F91506F
:101FA0005040A9F79E3F510570F05CCFA6CF5F3F30
:101FB000ECF3983EDCF3869577956795B795F795A2
:101FC000E7959F5FC1F7FE2B880F911D969587952A
:101FD00097F9089523DF880B990B0895AA1BBB1B63
:101FE00051E107C0AA1FBB1FA617B70710F0A61B19
:101FF000B70B881F991F5A95A9F780959095BC013A
:10200000CD010895A1E21A2EAA1BBB1BFD010DC034
:10201000AA1FBB1FEE1FFF1FA217B307E407F50798
:1020200020F0A21BB30BE40BF50B661F771F881F74
:10203000991F1A9469F760957095809590959B010A
:10204000AC01BD01CF010895EE0FFF1F0590F49183
:10205000E02D0994DC0101C06D9341505040E0F740
:062060000895F894FFCF83
:102066000000000101010202020303030404040547
:1020760005050606060707070808080909090A0BE1
:102086000C0D0E0F1011121378797A7B7C7D7E7FF2
:10209600808182838485868788898A8BC8C9CACBD2
:1020A600CCCDCECFD0D1D2D3D4D5D6D7D8D9DADBF2
:1020B60041543234435820726561642F77726974D3
:1020C600652064656D6F002D2D2D2D2D2D2D2D2D4B
:1020D6002D2D2D2D2D2D2D2D2D2D2D2D2D005772E8
:1020E60069746520343220746F206164647265738C
:1020F600732031320052656164206279746520660E
:10210600726F6D2061646472657373203132202EA4
:102116002E2E002E2E2E20726561643A20005772F4
:1021260069746520363530303020746F2061646400
:1021360072657373203135005265616420696E746F
:10214600656765722066726F6D206164647265737F
:1021560073203135202E2E2E005772697465203378
:1021660032393337333237323920746F2061646441
:10217600726573732032300052656164206C6F6E35
:10218600672066726F6D20616464726573732032B6
:1021960030202E2E2E005772697465203131313170
:1021A60031313131313120746F206164647265736D
:1021B600732033310052656164206C6F6E67206650
:1021C600726F6D2061646472657373203331202EE3
:1021D6002E2E00577269746520332E313420746FA9
:1021E60020616464726573732034300052656164E3
:1021F60020666C6F61742066726F6D206164647214
:10220600657373203430202E2E2E00577269746544
:1022160020332E3134313539323635333539207461
:102226006F20616464726573732035300052656196
:102236006420646F75626C652066726F6D206164E0
:102246006472657373203530202E2E2E0057726906
:1022560074652063686172733A2027002720746FC3
:102266002061646472657373203230300052656198
:10227600642063686172732066726F6D20616464A6
:102286007265737320323030202E2E2E002E2E2EA5
:1022960020726561643A202700577269746520616F
:1022A60072726179206F66203830206279746573A6
:1022B600206174206164647265737320313030303C
:1022C60000526561642038302073696E676C652042
:1022D6006279746573207374617274696E672061C4
:1022E6007420616464726573732031303030005B32
:1022F600005D203D200052656164203830206279FF
:102306007465732077697468206F6E65206F7065D9
:10231600726174696F6E20617420616464726573A2
:10232600732031303030005468697320697320613E
:10233600206D65737361676500000000006E0541DE
:102346000516051E053105400500000000010A7D41
:102356000B83099C098E09DF090D0A006E616E0068
:08236600696E66006F766600E7
:107E0000112484B714BE81FFF0D085E080938100F7
:107E100082E08093C00088E18093C10086E0809377
:107E2000C20080E18093C4008EE0C9D0259A86E02C
:107E300020E33CEF91E0309385002093840096BBD3
:107E4000B09BFECF1D9AA8958150A9F7CC24DD24C4
:107E500088248394B5E0AB2EA1E19A2EF3E0BF2EE7
:107E6000A2D0813461F49FD0082FAFD0023811F036
:107E7000013811F484E001C083E08DD089C08234E0
:107E800011F484E103C0853419F485E0A6D080C0E4
:107E9000853579F488D0E82EFF2485D0082F10E0AE
:107EA000102F00270E291F29000F111F8ED06801E7
:107EB0006FC0863521F484E090D080E0DECF843638
:107EC00009F040C070D06FD0082F6DD080E0C81688
:107ED00080E7D80618F4F601B7BEE895C0E0D1E017
:107EE00062D089930C17E1F7F0E0CF16F0E7DF06D8
:107EF00018F0F601B7BEE89568D007B600FCFDCFD4
:107F0000A601A0E0B1E02C9130E011968C91119780
:107F100090E0982F8827822B932B1296FA010C0160
:107F200087BEE89511244E5F5F4FF1E0A038BF0790
:107F300051F7F601A7BEE89507B600FCFDCF97BE46
:107F4000E89526C08437B1F42ED02DD0F82E2BD052
:107F50003CD0F601EF2C8F010F5F1F4F84911BD097
:107F6000EA94F801C1F70894C11CD11CFA94CF0C13
:107F7000D11C0EC0853739F428D08EE10CD085E9AC
:107F80000AD08FE07ACF813511F488E018D01DD067
:107F900080E101D065CF982F8091C00085FFFCCF94
:107FA0009093C60008958091C00087FFFCCF809118
:107FB000C00084FD01C0A8958091C6000895E0E648
:107FC000F0E098E1908380830895EDDF803219F02E
:107FD00088E0F5DFFFCF84E1DECF1F93182FE3DFCA
:107FE0001150E9F7F2DF1F91089580E0E8DFEE27F6
:047FF000FF270994CA
:027FFE00040479
:0400000300007E007B
:00000001FF