:100000000C946A000C9492000C9492000C94920050
:100010000C9492000C9492000C9492000C94920018
:100020000C9492000C9492000C9492000C94920008
:100030000C9492000C9492000C9492000C949200F8
:100040000C9433070C9492000C94090A0C943B0A0C
:100050000C9492000C9492000C9492000C949200D8
:100060000C9406060C949200950398039B039E0340
:10007000A103A403A703000000080002010000037D
:100080000407000000000000000001020408102026
:10009000408001020408102001020408102004041A
:1000A0000404040404040202020202020303030320
:1000B00003030000000023002600290000000000C8
:1000C000250028002B0000000000240027002A0043
:1000D0001C056B0A11241FBECFEFD8E0DEBFCDBFD9
:1000E00012E0A0E0B1E0EAEFF7E102C005900D9266
:1000F000A633B107D9F723E0A6E3B2E001C01D9211
:10010000A53BB207E1F710E0C4EDD0E004C02297B0
:10011000FE010E94F70BC03DD107C9F70E94AF0A4C
:100120000C94FB0B0C94000061E083E00E942C080F
:1001300061E084E00E942C0861E085E00E942C08C8
:1001400061E086E00E942C0860E088E00E942C08B4
:1001500060E089E00E942C0860E08AE00E942C08A0
:1001600060E08BE00E942C088FE492E00E948C04F7
:1001700026E040E855E260E070E088E193E00E940C
:10018000A70960E071E088E193E00E94090B88E133
:1001900093E00C94050B8130910569F46130710591
:1001A000C9F162307105C1F163307105B9F1643094
:1001B000710579F535C08230910569F461307105BA
:1001C00089F16230710581F16330710579F1643034
:1001D0007105F9F42DC08330910569F46130710522
:1001E00049F16230710541F16330710539F16430D4
:1001F000710579F425C0049761F46130710511F13E
:100200006230710509F16330710501F164307105E7
:10021000F9F0089581E3089582E3089583E3089552
:1002200081E4089584E3089585E3089586E30895BD
:1002300082E4089587E3089588E3089589E30895A3
:1002400083E408958AE2089580E3089583E208959F
:1002500084E408950E94CB00682F88E193E00E9417
:10026000FE0A6AE070E080E090E00C94A0071F9323
:10027000CF93DF93C1E0D0E01EE660E083E00E9410
:10028000650860E084E00E94650860E085E00E9407
:10029000650860E086E00E94650861E08C2F8E5F53
:1002A0000E94650888E00E949B08019781F461E044
:1002B00070E0CE010E942A0188E00E949B0801970D
:1002C000D9F361E070E0CE010E94CB00182F89E0E5
:1002D0000E949B08019781F462E070E0CE010E94C9
:1002E0002A0189E00E949B080197D9F362E070E03F
:1002F000CE010E94CB00182F8AE00E949B08019734
:1003000081F463E070E0CE010E942A018AE00E943D
:100310009B080197D9F363E070E0CE010E94CB0007
:10032000182F8BE00E949B08019781F464E070E035
:10033000CE010E942A018BE00E949B080197D9F30D
:1003400064E070E0CE010E94CB00182F2196C530EA
:10035000D10509F092CF1E3609F48CCF812FDF91A1
:10036000CF911F91089565E271E088E193E00E94CA
:10037000090B0E943701992787FD909590934302BE
:10038000809342020E943701992787FD90959093B0
:1003900045028093440268E471E088E193E00E94A2
:1003A000FC0A0E943701992787FD90959093470298
:1003B000809346020E943701992787FD909590937C
:1003C00049028093480268E471E088E193E00E946A
:1003D000FC0A0E943701992787FD909590934B0264
:1003E00080934A020E943701992787FD9095909348
:1003F0004D0280934C026AE471E088E193E00E9430
:10040000090B0E943701992787FD909590934F0221
:1004100080934E026AE070E080E090E00C94A007C8
:100420006DE671E088E193E00E94090B0E943701BC
:10043000992787FD909590933702809336020E940A
:100440003701992787FD9095909339028093380260
:100450006BE671E088E193E00E94FC0A0E9437019C
:10046000992787FD909590933B0280933A020E94D2
:100470003701992787FD909590933D0280933C0228
:100480006BE671E088E193E00E94FC0A0E9437016C
:10049000992787FD909590933F0280933E020E949A
:1004A0003701992787FD90959093410280934002F0
:1004B00066E471E088E193E00E94090B6AE070E075
:1004C00080E090E00C94A0076AE00E94C70B20E156
:1004D000829F900D1124892F0895982F92959F70D7
:1004E0008F702AE0929F800D112408950F931F931F
:1004F000CF93DF9380913E02109140029AE0899F52
:10050000100D112480913A02D0913C029AE0899F0B
:10051000D00D112480913602C09138029AE0899F53
:10052000C00D112400914E0268E670E08FE492E065
:100530000E94A00460914E028FE492E00E944D045C
:10054000812F0E946402182F682F8FE492E00E948E
:100550004D048D2F0E946402D82F682F8FE492E003
:100560000E944D048C2F0E946402C82F682F8FE4D4
:1005700092E00E944D04802F0E946402682F8FE455
:1005800092E00E944D046C2F8FE492E00E944D0493
:100590006D2F8FE492E00E944D04612F8FE492E072
:1005A0000E944D0460914E028FE492E00E944D043F
:1005B0008FE492E0DF91CF911F910F910C94190578
:1005C000DF92EF92FF920F931F93CF93DF9368E632
:1005D00070E08FE492E00E94A00460914E028FE4EC
:1005E00092E00E944D048FE492E00E94190547E0DA
:1005F00050E068E670E08FE492E00E9416058FE418
:1006000092E00E94FD030E946D02D82F8FE492E0D9
:100610000E94FD030E946D02182F8FE492E00E9459
:10062000FD038F730E946D02082F8FE492E00E94F9
:10063000FD030E946D02C82F8FE492E00E94FD032B
:100640000E946D02D82E8FE492E00E94FD030E946A
:100650006D02E82E8FE492E00E94FD030E946D027D
:10066000F82E60E971E088E193E00E94FC0A6D2DAC
:1006700070E04AE050E088E193E00E94BE0B68E43D
:1006800071E088E193E00E94FC0A6E2D70E04AE080
:1006900050E088E193E00E94BE0B68E471E088E1DD
:1006A00093E00E94FC0A6F2D70E04AE050E088E180
:1006B00093E00E94BE0B66E471E088E193E00E9443
:1006C000FC0A67E971E088E193E00E94FC0A602F70
:1006D00070E04AE050E088E193E00E94BE0B6BE6D8
:1006E00071E088E193E00E94FC0A612F70E04AE02B
:1006F00050E088E193E00E94BE0B6BE671E088E178
:1007000093E00E94FC0A6D2F70E04AE050E088E11F
:1007100093E00E94BE0B8C2F90E08730910520F56E
:10072000FC01EC5CFF4F0C94F50B6FE971E011C01C
:1007300069EA71E00EC063EB71E00BC06BEB71E036
:1007400008C064EC71E005C06DEC71E002C065EDBD
:1007500071E088E193E0DF91CF911F910F91FF90BD
:10076000EF90DF900C94090BDF91CF911F910F91C7
:10077000FF90EF90DF9008950E9437018A32A9F42C
:100780006EED71E088E193E00E94090B0E94B301D5
:100790000E9410026AE070E080E090E00E94A007F2
:1007A0000E9476026EEE71E012C08332C1F466EFF1
:1007B00071E088E193E00E94090B0E94E0026AE088
:1007C00070E080E090E00E94A00766E471E088E1BC
:1007D00093E00E94090B88E193E00E94050B6AE018
:1007E00070E080E090E00C94A00780917F0290E0A0
:1007F00020918002821B91090895209180028091AE
:100800007F02281750F4E22FF0E0EF57FD4F808170
:1008100090E02F5F2093800208958FEF9FEF08955F
:10082000E091800280917F02E81730F4F0E0EF570A
:10083000FD4F808190E008958FEF9FEF0895089518
:10084000CF92DF92EF92FF920F931F93CF93DF939C
:100850007C01CB018A0120915B02222389F0EB010C
:100860006B01C40ED51ECC15DD0569F06991D70169
:10087000ED91FC910190F081E02DC7010995F3CF36
:10088000642F0E94DD05C801DF91CF911F910F9168
:10089000FF90EF90DF90CF900895CF93DF931F925A
:1008A000CDB7DEB7698320915B022223D1F020917E
:1008B0005C02203240F021E030E0FC0133832283EF
:1008C00080E090E015C080915D02E82FF0E0E25AF0
:1008D000FD4F998190838F5F80935D0280935C02CE
:1008E00005C061E0CE0101960E94DD0581E090E047
:1008F0000F90DF91CF910895FC011382128248EE90
:1009000053E060E070E044835583668377838AE038
:1009100092E09183808308951092800210927F026A
:1009200010925D0210925C020C94200581E080938D
:100930005B0260937E0210925D0210925C02089549
:100940000C9496040F93062F21E040915C026EE513
:1009500072E080917E020E94860510925D021092E4
:100960005C0210925B020F9108958F929F92AF925A
:10097000BF92CF92DF92EF92FF920F931F93CF938C
:10098000DF93EC01F62ED42E48015901EE2019F127
:100990000E9496041E2D143008F013E01150B8F098
:1009A000E881F98128E0129FB0011124A50194018A
:1009B00004C056954795379527956A95D2F7CA0191
:1009C000B9010190F081E02DCE010995E7CF60E0FB
:1009D000CE010E94A2044D2D413208F040E22C2DA0
:1009E00061E872E08F2D0E943E0510928002809394
:1009F0007F02DF91CF911F910F91FF90EF90DF90D9
:100A0000CF90BF90AF909F908F900895CF92EF922C
:100A10000F931F93C22EE12C00E010E098010E947A
:100A2000B5041F910F91EF90CF90089521E00C94A1
:100A3000060561E00C94A2048FE492E00C947C041F
:100A400010920E0381E080930C0310920B0361E07F
:100A500082E10E94650861E083E10E946508E9EB9C
:100A6000F0E080818E7F808380818D7F808388E429
:100A70008093B80085E48093BC000895413208F06B
:100A800043C090910E039111FCCF91E090930E031F
:100A900020930C032FEF2093A1021092E602240F63
:100AA0002093E50290930D0390910D03880F892BFD
:100AB00080930D0380910B03813061F410920B033E
:100AC00080910D038093BB008091BC0083FDF8CF23
:100AD00085EC01C085EE8093BC0080910E038130CF
:100AE000E1F38091E602841710F44091E60227EECC
:100AF00032E0FB01D9018A2F821B841718F48D91F3
:100B00008193F9CF842F089580E008950F934132A7
:100B100008F04AC090910E039111FCCF92E090939F
:100B20000E0300930C039FEF9093A1021092E60234
:100B30004093E502FB0167EE72E0DB019A2F961B02
:100B4000941718F491919D93F9CF10920D03909101
:100B50000D03880F892B80930D0380910B03813047
:100B600061F410920B0380910D038093BB00809180
:100B7000BC0083FDF8CF85EC01C085EE8093BC00FE
:100B8000222321F080910E038230E1F38091A102B3
:100B90008F3F61F08091A102803251F08091A102DB
:100BA000803341F483E007C081E005C080E003C0EA
:100BB00082E001C084E00F910895613298F42091A1
:100BC0000E03243089F46093C302FC0185EC92E0AB
:100BD000DC012A2F281B261718F421912D93F9CF19
:100BE00080E0089581E0089582E0089585ED809386
:100BF000BC008091BC0084FDFCCF10920E030895D0
:100C000085EC8093BC0010920E0308951F920F9202
:100C10000FB60F9211242F933F934F935F936F93CF
:100C20007F938F939F93AF93BF93EF93FF938091A5
:100C3000B900887F803609F49EC078F5883209F4BF
:100C40005DC090F4803109F456C038F4882309F46B
:100C5000F5C0883009F44FC0F5C0883109F44EC0A2
:100C6000803209F45FC0EEC0803409F46AC058F4E1
:100C7000803309F457C0883309F0E4C08093A1029F
:100C80000E940006DFC0803509F44FC0883509F4A2
:100C90005DC0883409F0D6C0D3C0883909F4C4C017
:100CA000A8F4883709F467C038F4883609F463C0BB
:100CB000803709F460C0C6C0883809F4B5C08039EF
:100CC00009F45FC0803809F0BDC05BC0803B09F407
:100CD00083C038F4803A09F466C0883A09F47CC0CD
:100CE000B1C0803C09F4A4C0883C09F4A1C0883B91
:100CF00009F487C0A7C080910D0310C09091E6024F
:100D00008091E502981770F5E091E60281E08E0F80
:100D10008093E602F0E0E951FD4F80818093BB00B3
:100D200085EC83C08093A1028BC0E091E60281E054
:100D30008E0F8093E6028091BB00F0E0E951FD4FF9
:100D400080839091E6028091E5026BC0E091E6021B
:100D500081E08E0F8093E6028091BB00F0E0E951C4
:100D6000FD4F808380910C0381116AC081E08093E4
:100D70000B0384EA5EC083E080930E031092A2020C
:100D8000CFCF8091A202803208F04EC0E091A20243
:100D900081E08E0F8093A2028091BB00F0E0ED55C0
:100DA000FD4F8083BDCF0E9400068091A202803259
:100DB00030F4E091A202F0E0ED55FD4F1082609119
:100DC000A20270E0E0910703F091080383EA92E049
:100DD00009951092A20236C084E080930E0310920F
:100DE000C4021092C302E0910903F0910A0309952D
:100DF0008091C302811105C081E08093C3021092EB
:100E0000C502E091C40281E08E0F8093C402F0E03D
:100E1000EB53FD4F80818093BB009091C402809181
:100E2000C302981708F47CCF85E88093BC000AC001
:100E300085EC8093BC0010920E0304C01092A102B6
:100E40000E94F605FF91EF91BF91AF919F918F9115
:100E50007F916F915F914F913F912F910F900FBEB6
:100E60000F901F9018951F920F920FB60F9211249A
:100E70002F933F938F939F93AF93BF9380911003D2
:100E800090911103A0911203B091130330910F03BD
:100E900023E0230F2D3720F40196A11DB11D05C0BD
:100EA00026E8230F0296A11DB11D20930F03809306
:100EB000100390931103A0931203B0931303809136
:100EC000140390911503A0911603B0911703019696
:100ED000A11DB11D8093140390931503A0931603D5
:100EE000B0931703BF91AF919F918F913F912F9135
:100EF0000F900FBE0F901F9018953FB7F8948091F8
:100F0000140390911503A0911603B091170326B511
:100F1000A89B05C02F3F19F00196A11DB11D3FBF31
:100F20006627782F892F9A2F620F711D811D911DC1
:100F300042E0660F771F881F991F4A95D1F70895E1
:100F4000CF92DF92EF92FF92CF93DF936B017C0100
:100F50000E947D07EB01C114D104E104F10489F082
:100F60000E94C60B0E947D076C1B7D0B683E734080
:100F700090F381E0C81AD108E108F108C851DC4FAC
:100F8000EACFDF91CF91FF90EF90DF90CF9008955F
:100F9000789484B5826084BD84B5816084BD85B554
:100FA000826085BD85B5816085BDEEE6F0E080811B
:100FB00081608083E1E8F0E010828081826080833C
:100FC000808181608083E0E8F0E0808181608083BF
:100FD000E1EBF0E0808184608083E0EBF0E08081F1
:100FE00081608083EAE7F0E0808184608083808193
:100FF000826080838081816080838081806880833B
:101000001092C1000895833081F028F4813099F066
:101010008230A1F008958730A9F08830B9F084308B
:10102000D1F4809180008F7D03C0809180008F7704
:1010300080938000089584B58F7702C084B58F7D3A
:1010400084BD08958091B0008F7703C08091B00077
:101050008F7D8093B0000895CF93DF9390E0FC01E3
:10106000E657FF4F2491FC01E256FF4F84918823FD
:1010700049F190E0880F991FFC01EA53FF4FA591B9
:10108000B49184549F4FFC01C591D4919FB76111D5
:1010900008C0F8948C91209582238C9388818223B8
:1010A0000AC0623051F4F8948C91322F309583232A
:1010B0008C938881822B888304C0F8948C91822B36
:1010C0008C939FBFDF91CF9108950F931F93CF9380
:1010D000DF931F92CDB7DEB7282F30E0F901EA5831
:1010E000FF4F8491F901E657FF4F1491F901E25641
:1010F000FF4F04910023C9F0882321F069830E94E7
:1011000003086981E02FF0E0EE0FFF1FE454FF4F6A
:10111000A591B4919FB7F8948C91611103C010957B
:10112000812301C0812B8C939FBF0F90DF91CF91C2
:101130001F910F910895CF93DF93282F30E0F9018D
:10114000EA58FF4F8491F901E657FF4FD491F90116
:10115000E256FF4FC491CC2391F081110E94030805
:10116000EC2FF0E0EE0FFF1FEE54FF4FA591B4916E
:101170002C912D2381E090E021F480E002C080E0FA
:1011800090E0DF91CF910895FC01818D228D90E058
:10119000805C9F4F821B91098F7399270895FC01F2
:1011A000918D828D981731F0828DE80FF11D858D1C
:1011B00090E008958FEF9FEF0895FC01918D828D4F
:1011C000981761F0828DDF01A80FB11D5D968C919B
:1011D000928D9F5F9F73928F90E008958FEF9FEFA6
:1011E000089581E69AE0892B49F080E090E0892B10
:1011F00029F00E94610A81110C9400000895FC01FD
:10120000848DDF01A80FB11DA35ABF4F2C91848D8F
:1012100090E001968F739927848FA689B7892C93C4
:10122000A089B1898C9180648C93938D848D98135F
:1012300006C00288F389E02D80818F7D8083089528
:10124000CF93DF93EC01888D8823C9F0EA89FB896D
:10125000808185FD05C0A889B9898C9186FD0FC064
:101260000FB607FCF5CF808185FFF2CFA889B98939
:101270008C9185FFEDCFCE010E94FF08E7CFDF9173
:10128000CF910895CF92DF92FF920F931F93CF9348
:10129000DF931F92CDB7DEB76C0181E0D60158967F
:1012A0008C9358975B969C915B975C968C915C971E
:1012B000981307C05096ED91FC915197808185FD60
:1012C0002EC0F601038D10E00F5F1F4F0F73112723
:1012D000F02EF601848DF81211C00FB607FCF9CF7D
:1012E000D6015096ED91FC915197808185FFF1CF09
:1012F000C60169830E94FF086981EBCF838DE80FE7
:10130000F11DE35AFF4F6083D6015B960C935B9708
:101310005296ED91FC915397808180620CC0D6016A
:101320005696ED91FC91579760835096ED91FC9104
:10133000519780818064808381E090E00F90DF91FD
:10134000CF911F910F91FF90DF90CF900895BF92A2
:10135000CF92DF92EF92FF92CF93DF93EC016A017D
:101360007B01B22EE889F98982E08083411581EE04
:10137000580761057105A1F060E079E08DE390E028
:10138000A70196010E94D30B21503109410951094F
:101390005695479537952795211580E1380798F0A0
:1013A000E889F989108260E874E88EE190E0A7018D
:1013B00096010E94D30B21503109410951095695DC
:1013C000479537952795EC85FD853083EE85FF851C
:1013D0002083188EEC89FD89B082EA89FB8980819F
:1013E00080618083EA89FB89808188608083EA89C3
:1013F000FB89808180688083EA89FB8980818F7D79
:101400008083DF91CF91FF90EF90DF90CF90BF90DE
:1014100008951F920F920FB60F9211242F938F935E
:101420009F93EF93FF93E0912803F091290380812C
:10143000E0912E03F0912F0382FD12C090818091E4
:1014400031038F5F8F7320913203821751F0E09147
:101450003103F0E0E85EFC4F958F8093310301C0CB
:101460008081FF91EF919F918F912F910F900FBEEF
:101470000F901F9018951F920F920FB60F92112484
:101480002F933F934F935F936F937F938F939F938C
:10149000AF93BF93EF93FF9388E193E00E94FF081F
:1014A000FF91EF91BF91AF919F918F917F916F913C
:1014B0005F914F913F912F910F900FBE0F901F9012
:1014C000189588E193E00E94C40821E0892B09F473
:1014D00020E0822F089510921B0310921A0388EEC9
:1014E00093E0A0E0B0E080931C0390931D03A093D1
:1014F0001E03B0931F038AE192E090931903809337
:10150000180385EC90E0909325038093240384ECEA
:1015100090E0909327038093260380EC90E09093D3
:1015200029038093280381EC90E090932B03809310
:101530002A0382EC90E090932D0380932C0386EC99
:1015400090E090932F0380932E031092310310921A
:1015500032031092330310923403089508950E94C9
:10156000C8070E94AE0A0E949400C1EFD8E00E9412
:10157000BC032097E1F30E94F108F9CFCF92DF92EC
:10158000EF92FF920F931F93CF93DF937C016A0139
:10159000EB0100E010E00C151D0571F06991D70119
:1015A000ED91FC910190F081E02DC7010995892B07
:1015B00019F00F5F1F4FEFCFC801DF91CF911F913F
:1015C0000F91FF90EF90DF90CF9008956115710516
:1015D00081F0DB010D900020E9F7AD014150510988
:1015E000461B570BDC01ED91FC910280F381E02D4D
:1015F000099480E090E008950C94E60ADC01ED91F6
:10160000FC910190F081E02D099466E272E00C9467
:10161000E60A0F931F93CF93DF93EC010E94E60A33
:101620008C01CE010E94050B800F911FDF91CF919D
:101630001F910F9108958F929F92AF92BF92CF9278
:10164000DF92EF92FF920F931F93CF93DF93CDB76B
:10165000DEB7A1970FB6F894DEBF0FBECDBF7C01F9
:10166000C42EE52FCB01D22E19A221E02D1510F0AA
:101670002AE0D22E8E010F5D1F4F8D2C912CA12CB4
:10168000B12C6C2D7E2FA50194010E94D30B8C2DC3
:10169000D29E80191124015011098A3014F4805D02
:1016A00001C0895CF8018083211531054105510590
:1016B00021F0C22EE32FCA01E4CFB801C7010E9476
:1016C000E60AA1960FB6F894DEBF0FBECDBFDF913C
:1016D000CF911F910F91FF90EF90DF90CF90BF902F
:1016E000AF909F908F900895CF92DF92EF92FF92EC
:1016F0000F931F93CF93DF93EC016A017B012115B8
:10170000310579F4E881F9810190F081E02D642FB1
:10171000DF91CF911F910F91FF90EF90DF90CF90CD
:1017200009942A303105E9F477FF1AC06DE20E946E
:10173000FE0A8C0144275527BA014C195D096E0930
:101740007F092AE0CE010E941B0B800F911FDF91C1
:10175000CF911F910F91FF90EF90DF90CF90089560
:101760002AE0B701A601CE01DF91CF911F910F9121
:10177000FF90EF90DF90CF900C941B0B9A01AB0180
:10178000662757FD6095762F0C94740B0895991B6E
:1017900079E004C0991F961708F0961B881F7A9568
:1017A000C9F780950895A1E21A2EAA1BBB1BFD0163
:1017B0000DC0AA1FBB1FEE1FFF1FA217B307E40730
:1017C000F50720F0A21BB30BE40BF50B661F771F88
:1017D000881F991F1A9469F7609570958095909568
:1017E0009B01AC01BD01CF010895EE0FFF1F0590D5
:0A17F000F491E02D0994F894FFCF66
:1017FA00416775617264616E646F206163696F6EBF
:10180A00616D656E746F20646173207465636C61C9
:10181A00732E2E2E00446967697465206120646105
:10182A007461206E6F20666F726D61746F20303044
:10183A002F30302F303020002F0020446967697420
:10184A0065206F206469612064612073656D616E33
:10185A006120656D206E756D65726F3A0044696727
:10186A00697465206120686F7261206E6F20666FEF
:10187A00726D61746F2030303A30303A3030200067
:10188A00446174613A2000486F7261203A20002C4A
:10189A0020446F6D696E676F002C20536567756E03
:1018AA006461002C205465726361002C20517561BB
:1018BA00727461002C205175696E7461002C20537A
:1018CA0065787461002C2053616261646F006772ED
:1018DA0061766120646F205254432E2E2E00477287
:1018EA00617661646F004D6F737472616E646F200C
:1018FA0074656D706F00000000004D042004F5034C
:10190A00FD0310041F04000000004209BE0AC408B7
:10191A00DD08CF0820090D0A006E616E00696E6647
:06192A00006F766600006C
:00000001FF
