:100000000C9466000C948E000C948E000C948E0060
:100010000C948E000C948E000C948E000C948E0028
:100020000C948E000C948E000C948E000C948E0018
:100030000C948E000C948E000C948E000C948E0008
:100040000C94630B0C948E000C941C0E0C944E0EAE
:100050000C948E000C948E000C948E000C948E00E8
:100060000C94360A0C948E00760379037C037F038C
:1000700082038503880300000008000201000003DA
:100080000407000000000000000001020408102026
:10009000408001020408102001020408102004041A
:1000A0000404040404040202020202020303030320
:1000B000030300000000250028002B0000000000C2
:1000C000240027002A0004084C097E0E11241FBEBC
:1000D000CFEFD8E0DEBFCDBF12E0A0E0B1E0EEEAA6
:1000E000F7E202C005900D92A03DB107D9F724E0D8
:1000F000A0EDB2E001C01D92A73BB207E1F710E00E
:10010000CCECD0E004C02297FE010E949911C63CBD
:10011000D107C9F70E94C20E0C94D5130C940000AD
:100120006AE00E94691120E1829F900D1124892FBD
:100130000895982F92959F708F702AE0929F800D5E
:10014000112408958033F9F08133F9F08233F9F006
:100150008333F9F08433F9F08533F9F08633F9F01D
:100160008733F9F08833F9F08933F9F08136F9F003
:100170008236F9F08336F9F08436F9F08536F9F0F5
:100180008636F9F0089580E01DC081E01BC082E052
:1001900019C083E017C084E015C085E013C086E075
:1001A00011C087E00FC088E00DC089E00BC08AE075
:1001B00009C08BE007C08CE005C08DE003C08EE075
:1001C00001C08FE090E008951092F9021092F802B9
:1001D0001092FB021092FA021092FD021092FC02A1
:1001E0002091DC023091DD024AE0429FC001439F32
:1001F000900D11242091DE023091DF02820F931FB7
:100200009093F3028093F2022091E0023091E10298
:10021000429FC001439F900D11242091E202309132
:10022000E302820F931F9093F5028093F4022091D2
:10023000E4023091E502429FC001439F900D1124DA
:100240002091E6023091E702820F931F9093F7020C
:100250008093F6021092EF021092EE021092F102D9
:100260001092F0021092F3021092F2022091D80242
:100270003091D902429FC001439F900D11242091DB
:10028000DA023091DB02820F931F9093E902809390
:10029000E8022091D4023091D502429FC001439FD1
:1002A000900D11242091D6023091D702820F931F16
:1002B0009093EB028093EA022091D0023091D10218
:1002C000429FC001439F900D11242091D202309192
:1002D000D302820F931F9093ED028093EC02089556
:1002E00068E071E086E194E00E943C0F61E081E10A
:1002F0000E94A10C68EB7BE080E090E00E94DC0BA8
:1003000086E194E00E94260F60E171E086E194E0CE
:100310000E943C0F60E081E10E94A10C64E670E065
:1003200080E090E00C94DC0BDF92EF92FF920F9351
:100330001F93CF93DF930E94E4008091DC029091A1
:10034000DD022AE0289FE001299FD00D1124809131
:10035000DE029091DF02C80FD91F8091E0029091D8
:10036000E102289F8001299F100D11248091E20253
:100370009091E302080F191F8091E4029091E50229
:10038000289F7001299FF00C11248091E602909122
:10039000E702E80EF91EF090E8021091EA02D0910F
:1003A000EC02D090060168E670E08DE493E00E94D4
:1003B000D0086091FC028DE493E00E947D088E2DB0
:1003C0000E949000682F8DE493E00E947D08802FAA
:1003D0000E949000682F8DE493E00E947D088C2F8E
:1003E0000E949000682F8DE493E00E947D088D2D7F
:1003F0000E949000682F8DE493E00E947D088F2D6D
:100400000E949000682F8DE493E00E947D08812F68
:100410000E949000682F8DE493E00E947D088D2F4C
:100420000E949000682F8DE493E00E947D08609107
:10043000FC028DE493E00E947D088DE493E0DF915F
:10044000CF911F910F91FF90EF90DF900C9449098D
:1004500068E171E086E194E00E943C0F68E670E09C
:100460008DE493E00E94D0086091FC028DE493E05B
:100470000E947D0860E48DE493E00E947D0869E5B8
:100480008DE493E00E947D0863E28DE493E00E9496
:100490007D0861E08DE493E00E947D0867E18DE4D2
:1004A00093E00E947D0864E08DE493E00E947D0863
:1004B00063E18DE493E00E947D086091FC028DE48D
:1004C00093E00E947D088DE493E00E9449096AE070
:1004D00070E080E090E00E94DC0B6AE271E086E16F
:1004E00094E00C943C0F48EB5BE060E070E085E04A
:1004F00093E00E94520720E835E240E050E066E1D8
:1005000074E085E093E00E94680761E085E093E095
:100510000E942807882391F06CE371E080914703E3
:10052000909148030E941D0F6AE070E080E090E027
:100530000E94DC0B85E093E00E94510741E060E0FF
:1005400085E093E00E94E60726E040E855E260E09F
:1005500070E086E194E00E94BA0D61E081E10E94C2
:10056000680C8DE493E00E94BC080E94280264E6B7
:1005700070E080E090E00E94DC0B86E194E00C9457
:10058000260FDF92EF92FF920F931F93CF93DF938B
:1005900068E670E08DE493E00E94D0086091FC0270
:1005A0008DE493E00E947D088DE493E00E94490968
:1005B00047E050E068E670E08DE493E00E94460971
:1005C0008DE493E00E942D080E949900D82F8DE4BD
:1005D00093E00E942D080E949900182F8DE493E06B
:1005E0000E942D088F730E949900082F8DE493E0DC
:1005F0000E942D080E949900C82F8DE493E00E946C
:100600002D080E949900D82E8DE493E00E942D08B9
:100610000E949900E82E8DE493E00E942D080E942C
:100620009900F82E6EE471E086E194E00E941D0FBF
:100630006D2D70E04AE050E086E194E00E940310E6
:1006400065E571E086E194E00E941D0F6E2D70E07B
:100650004AE050E086E194E00E94031065E571E015
:1006600086E194E00E941D0F6F2D70E04AE050E09B
:1006700086E194E00E94031063EE71E086E194E06D
:100680000E941D0F67E571E086E194E00E941D0F56
:10069000602F70E04AE050E086E194E00E94031091
:1006A00061E472E086E194E00E941D0F612F70E02A
:1006B0004AE050E086E194E00E94031061E472E0B9
:1006C00086E194E00E941D0F6D2F70E04AE050E03B
:1006D00086E194E00E9403108C2F90E08730910512
:1006E00020F5FC01EC5CFF4F0C9497116FE571E075
:1006F00011C069E671E00EC063E771E00BC06BE703
:1007000071E008C064E871E005C06DE871E002C006
:1007100065E971E086E194E0DF91CF911F910F913F
:10072000FF90EF90DF900C943C0FDF91CF911F91E1
:100730000F91FF90EF90DF900895CF9386E194E0C2
:100740000E94D70C892BD1F386E194E00E94F00C33
:10075000C82F6AE070E080E090E00E94DC0B6C2F14
:1007600086E194E00E944E0F6AE070E080E090E045
:100770000E94DC0B8C2FCF910895CF92DF92EF92E5
:10078000FF92CF93DF93C8E0D0E060E070E0CB0150
:100790006B017C0184E0CC0CDD1CEE1CFF1C8A95F7
:1007A000D1F70E949D030E94A200BC01882777FD1B
:1007B0008095982F6C0D7D1D8E1D9F1D219741F7F3
:1007C000DF91CF91FF90EF90DF90CF9008956EE989
:1007D00071E086E194E00E943C0F0E94BD036D36FB
:1007E00075448342914011F40C94700168EA71E001
:1007F00086E194E00C943C0F9F92AF92BF92CF920F
:10080000DF92EF92FF920F931F93CF93DF93CDB7B9
:10081000DEB76C970FB6F894DEBF0FBECDBF7C017C
:1008200069E572E00E94A31068EB71E086E194E054
:100830000E943C0F6E0181E1C80ED11CFE01319671
:100840005F010E949D03F4E08F02800111240C5E81
:100850001F4F1695079516950795F501019311936E
:100860005F014AE050E0B80186E194E00E941F1069
:10087000602F86E194E00E944E0F6AE070E080E015
:1008800090E00E94DC0BAC14BD04D9F6AA24A3941A
:10089000B12CAC0EBD1EF2E1AF0EB11C8E010F5F8C
:1008A0001F4FF80190800E5F1F4FB701CE01479692
:1008B0000E940611692DCE0147960E945A11BC0173
:1008C000C6010E940611B601C7010E940F11C601A0
:1008D0000E943510CE0147960E9435100A151B055F
:1008E00001F7B70186E194E00E942A0FC7016C96D8
:1008F0000FB6F894DEBF0FBECDBFDF91CF911F9131
:100900000F91FF90EF90DF90CF90BF90AF909F90AE
:100910000895EF92FF920F931F93CF93DF93CDB77C
:10092000DEB728970FB6F894DEBF0FBECDBF62ECDE
:1009300071E086E194E00E943C0F86E194E00E9421
:10094000330D8E010F5F1F4F7E0188E0E80EF11C12
:1009500086E194E00E94D70C892BD1F386E194E0E4
:100960000E94F00CF80181938F01EE15FF0581F7CD
:100970008981992787FD9095C0979093D90280939C
:10098000D8028A81992787FD9095C0979093DB02C2
:100990008093DA028B81992787FD9095C097909379
:1009A000D5028093D4028C81992787FD9095C097BA
:1009B0009093D7028093D6028D81992787FD9095D9
:1009C000C0979093D1028093D0028E81992787FDA2
:1009D0009095C0979093D3028093D2028F819927EC
:1009E00087FD9095C09790930701809306016AE078
:1009F00070E080E090E028960FB6F894DEBF0FBE5E
:100A0000CDBFDF91CF911F910F91FF90EF900C948C
:100A1000DC0BEF92FF920F931F93CF93DF9300D0E5
:100A200000D000D0CDB7DEB765EE71E086E194E08E
:100A30000E943C0F86E194E00E94330D8E010F5F0F
:100A40001F4F7E0187E0E80EF11C86E194E00E94D2
:100A5000D70C892BD1F386E194E00E94F00CF801C9
:100A600081938F01EE15FF0581F78981992787FD15
:100A70009095C0979093DD028093DC028A8199273C
:100A800087FD9095C0979093DF028093DE028B8163
:100A9000992787FD9095C0979093E1028093E0029B
:100AA0008C81992787FD9095C0979093E30280935E
:100AB000E2028D81992787FD9095C0979093E5027A
:100AC0008093E4028E81992787FD9095C09790933B
:100AD000E7028093E6026AE070E080E090E026960C
:100AE0000FB6F894DEBF0FBECDBFDF91CF911F913F
:100AF0000F91FF90EF900C94DC0BCF92DF92EF926E
:100B0000FF920F931F93CF93DF9300D000D000D0BC
:100B1000CDB7DEB70E94AD0B672B682B692B39F47C
:100B20000E94AD0B6230710581059105B8F185E039
:100B300093E00E948F066093FD027093FE02809303
:100B4000FF02909300030091010310910203209192
:100B5000030330910403601771078207930740F481
:100B60006093010370930203809303039093040343
:100B700000910103109102032091030330910403BB
:100B80006B017C01C01AD10AE20AF30A97018601BF
:100B90000A3F11052105310508F06FC086E194E098
:100BA0000E94D70C181619060CF0AAC00E949D03CB
:100BB000182F64E670E080E090E00E94DC0B612F6B
:100BC00086E194E00E944E0F113649F40E94E7033B
:100BD0006AE070E080E090E00E94DC0B91C0123689
:100BE00029F56AE072E086E194E00E943C0F6AE039
:100BF00070E080E090E00E94DC0B0E9489046AE0D3
:100C000070E080E090E00E94DC0B0E9409056AE041
:100C100070E080E090E00E94DC0B0E94940162E2B0
:100C200072E086E194E00E943C0F6AC0133649F4FA
:100C30006BE272E086E194E00E943C0F0E94C102E8
:100C40000BC0143609F05CC0CE0101960E94FC0373
:100C5000CE0101960E9435106AE070E080E090E0DD
:100C60000E94DC0B63EE71E086E194E00E943C0F91
:100C700086E194E00E94260F43C0609301037093C5
:100C80000203809303039093040344EF51E060E078
:100C900070E085E093E00E94910661E085E093E0DA
:100CA0000E942807882309F161E085E093E00E9413
:100CB000AD0668E072E080914703909148030E947E
:100CC0001D0F0E94AD0BAB01BC012AE030E080910A
:100CD0004703909148030E940B1085E093E00E9427
:100CE000130785E093E00E94510765E070E080E023
:100CF00090E00E94DC0B85E093E00E941C074ECF41
:100D000026960FB6F894DEBF0FBECDBFDF91CF9110
:100D10001F910F91FF90EF90DF90CF9008950C946A
:100D2000AD0BCF93DF93EC014E875F87688B798B98
:100D30001A8A1B8A1C8A1D8A4E815F816885798583
:100D40004A875B876C877D870E94AD0B6E837F83AC
:100D500088879987DF91CF910895BF92CF92DF92D4
:100D6000EF92FF920F931F93CF93DF938C01B62ED8
:100D70000E94AD0B6B017C01E801CE5BDF4F68E3A5
:100D800072E0888199810E941D0F4AE050E06B2D2E
:100D9000888199810E9418106FE372E0888199819F
:100DA0000E941D0F2AE030E0B701A60188819981D9
:100DB0000E940B1061E472E0888199810E941D0FEE
:100DC000F80186819781A085B185B701A601481BEE
:100DD000590B6A0B7B0B2AE030E0888199810E94D5
:100DE0000B1061E472E0888199810E941D0FF80167
:100DF000468157816085718582859385A485B585F7
:100E0000481B590B6A0B7B0B2AE030E088819981E3
:100E1000DF91CF911F910F91FF90EF90DF90CF90D6
:100E2000BF900C940B108E5B9F4F63E472E0FC014B
:100E3000808191810C943C0FCF93DF93EC010E9451
:100E4000AD0B6E837F8388879987DF91CF9108955B
:100E50000F931F93CF93DF93EC01611116C00E9493
:100E6000AD0B0A811B812C813D81601B710B820BB4
:100E7000930B643671058105910538F463E070E0E9
:100E800080E090E00E94DC0BEACF0E94AD0B6A8309
:100E90007B838C839D8381E0DF91CF911F910F91A4
:100EA00008950895FC01EC5BFF4F108211821282BD
:100EB0001382FC011282138214821582411551059E
:100EC0006105710521F0CB01BA010C94DC0B08958A
:100ED000FB01BA01A9018E5B9F4FDC01ED93FC93EE
:100EE00026E0CF010C94BA0D8E5B9F4FDC018D91F3
:100EF0009C91DC01ED91FC910680F781E02D099534
:100F000008958E5B9F4FDC018D919C91DC01ED91EA
:100F1000FC910480F581E02D099508951F93CF93EE
:100F2000DF93EC01162F0E94AD0B6A837B838C83C9
:100F30009D83CE5BDF4F6AE472E0888199810E94D5
:100F40001D0F4AE050E0612F888199810E9418109E
:100F500061E572E0888199810E941D0F62E370E073
:100F600080E090E0DF91CF911F910C94DC0B1F93F8
:100F7000CF93DF93EC01162F8E89882311F1CE01D8
:100F80000E948107811102C085E61CC0CE010E942B
:100F900081078823C9F3CE010E947407883689F03F
:100FA00048F4883569F0833689F7612FCE010E94B5
:100FB0008E0707C0813729F0863741F786E702C0E0
:100FC0001E8A83E6DF91CF911F9108950F931F939F
:100FD000CF93DF931F92CDB7DEB78C01611108C0AC
:100FE000F801468B0F90DF91CF911F910F910895DB
:100FF00081E0F801868B60E0C80149830E94B70751
:1010000049818336C1F7ECCF10920B0310920C0389
:1010100010920D0310920E0310920F031092100302
:1010200010921103109212031092130310921403E2
:1010300010921503109216031092170310921803C2
:101040001092190310921A03089580917D0390E085
:1010500020917E03821B9109089520917E03809147
:101060007D03281750F4E22FF0E0E158FC4F808117
:1010700090E02F5F20937E0308958FEF9FEF0895F8
:10108000E0917E0380917D03E81730F4F0E0E158B1
:10109000FC4F808190E008958FEF9FEF08950895B1
:1010A000CF92DF92EF92FF920F931F93CF93DF9334
:1010B0007C01CB018A0120915903222389F0EB01A5
:1010C0006B01C40ED51ECC15DD0569F06991D70101
:1010D000ED91FC910190F081E02DC7010995F3CFCE
:1010E000642F0E940D0AC801DF91CF911F910F91CB
:1010F000FF90EF90DF90CF900895CF93DF931F92F2
:10110000CDB7DEB76983209159032223D1F0209116
:101110005A03203240F021E030E0FC013383228387
:1011200080E090E015C080915B03E82FF0E0E45A86
:10113000FC4F998190838F5F80935B0380935A0368
:1011400005C061E0CE0101960E940D0A81E090E0A9
:101150000F90DF91CF910895FC011382128248EE27
:1011600053E060E070E0448355836683778386EACA
:1011700092E091838083089510927E0310927D0304
:1011800010925B0310925A030C94500981E08093F3
:10119000590360937C0310925B0310925A030895E5
:1011A0000C94C6080F93062F21E040915A036CE57A
:1011B00073E080917C030E94B60910925B03109249
:1011C0005A03109259030F9108958F929F92AF92F4
:1011D000BF92CF92DF92EF92FF920F931F93CF9324
:1011E000DF93EC01F62ED42E48015901EE2019F1BF
:1011F0000E94C6081E2D143008F013E01150B8F0FC
:10120000E881F98128E0129FB0011124A501940121
:1012100004C056954795379527956A95D2F7CA0128
:10122000B9010190F081E02DCE010995E7CF60E092
:10123000CE010E94D2084D2D413208F040E22C2D03
:101240006FE773E08F2D0E946E0910927E038093EA
:101250007D03DF91CF911F910F91FF90EF90DF9071
:10126000CF90BF90AF909F908F900895CF92EF92C4
:101270000F931F93C22EE12C00E010E098010E9412
:10128000E5081F910F91EF90CF90089521E00C9405
:10129000360961E00C94D2088DE493E00C94AC081C
:1012A00010920C0481E080930A041092090461E01A
:1012B00082E10E94A10C61E083E10E94A10CE9EBB4
:1012C000F0E080818E7F808380818D7F808388E4C1
:1012D0008093B80085E48093BC000895413208F003
:1012E00043C090910C049111FCCF91E090930C04B9
:1012F00020930A042FEF20939F031092E403240FFE
:101300002093E30390930B0490910B04880F892B97
:1013100080930B0480910904813061F410920904D8
:1013200080910B048093BB008091BC0083FDF8CFBB
:1013300085EC01C085EE8093BC0080910C04813067
:10134000E1F38091E403841710F44091E40325EE67
:1013500033E0FB01D9018A2F821B841718F48D9189
:101360008193F9CF842F089580E008950F9341323F
:1013700008F04AC090910C049111FCCF92E0909338
:101380000C0400930A049FEF90939F031092E403D0
:101390004093E303FB0165EE73E0DB019A2F961B9C
:1013A000941718F491919D93F9CF10920B0490919A
:1013B0000B04880F892B80930B04809109048130E2
:1013C00061F41092090480910B048093BB0080911A
:1013D000BC0083FDF8CF85EC01C085EE8093BC0096
:1013E000222321F080910C048230E1F380919F034D
:1013F0008F3F61F080919F03803251F080919F0375
:10140000803341F483E007C081E005C080E003C081
:1014100082E001C084E00F910895613298F4209138
:101420000C04243089F46093C103FC0183EC93E045
:10143000DC012A2F281B261718F421912D93F9CFB0
:1014400080E0089581E0089582E0089585ED80931D
:10145000BC008091BC0084FDFCCF10920C04089568
:1014600085EC8093BC0010920C0408951F920F929B
:101470000FB60F9211242F933F934F935F936F9367
:101480007F938F939F93AF93BF93EF93FF9380913D
:10149000B900887F803609F49EC078F5883209F457
:1014A0005DC090F4803109F456C038F4882309F403
:1014B000F5C0883009F44FC0F5C0883109F44EC03A
:1014C000803209F45FC0EEC0803409F46AC058F479
:1014D000803309F457C0883309F0E4C080939F0338
:1014E0000E94300ADFC0803509F44FC0883509F406
:1014F0005DC0883409F0D6C0D3C0883909F4C4C0AF
:10150000A8F4883709F467C038F4883609F463C052
:10151000803709F460C0C6C0883809F4B5C0803986
:1015200009F45FC0803809F0BDC05BC0803B09F49E
:1015300083C038F4803A09F466C0883A09F47CC064
:10154000B1C0803C09F4A4C0883C09F4A1C0883B28
:1015500009F487C0A7C080910B0410C09091E403E8
:101560008091E303981770F5E091E40381E08E0F1A
:101570008093E403F0E0EB51FC4F80818093BB004B
:1015800085EC83C080939F038BC0E091E40381E0EE
:101590008E0F8093E4038091BB00F0E0EB51FC4F91
:1015A00080839091E4038091E3036BC0E091E403B6
:1015B00081E08E0F8093E4038091BB00F0E0EB515B
:1015C000FC4F808380910A0481116AC081E080937E
:1015D000090484EA5EC083E080930C041092A003A7
:1015E000CFCF8091A003803208F04EC0E091A003DD
:1015F00081E08E0F8093A0038091BB00F0E0EF5557
:10160000FC4F8083BDCF0E94300A8091A0038032BE
:1016100030F4E091A003F0E0EF55FC4F10826091B0
:10162000A00370E0E0910504F091060481EA93E0E4
:1016300009951092A00336C084E080930C041092A8
:10164000C2031092C103E0910704F09108040995C8
:101650008091C103811105C081E08093C103109284
:10166000C303E091C20381E08E0F8093C203F0E0D8
:10167000ED53FC4F80818093BB009091C203809119
:10168000C103981708F47CCF85E88093BC000AC09A
:1016900085EC8093BC0010920C0404C010929F0350
:1016A0000E94260AFF91EF91BF91AF919F918F9178
:1016B0007F916F915F914F913F912F910F900FBE4E
:1016C0000F901F9018951F920F920FB60F92112432
:1016D0002F933F938F939F93AF93BF9380910E046B
:1016E00090910F04A0911004B091110430910D0459
:1016F00023E0230F2D3720F40196A11DB11D05C055
:1017000026E8230F0296A11DB11D20930D0480939E
:101710000E0490930F04A0931004B09311048091D1
:10172000120490911304A0911404B0911504019631
:10173000A11DB11D8093120490931304A09314046F
:10174000B0931504BF91AF919F918F913F912F91CD
:101750000F900FBE0F901F9018952FB7F8946091BF
:101760000E0470910F0480911004909111042FBF0A
:1017700008953FB7F8948091120490911304A091BA
:101780001404B091150426B5A89B05C02F3F19F08D
:101790000196A11DB11D3FBF6627782F892F9A2F73
:1017A000620F711D811D911D42E0660F771F881F1A
:1017B000991F4A95D1F70895CF92DF92EF92FF9249
:1017C000CF93DF936B017C010E94B90BEB01C11435
:1017D000D104E104F10489F00E9468110E94B90B60
:1017E0006C1B7D0B683E734090F381E0C81AD108F2
:1017F000E108F108C851DC4FEACFDF91CF91FF90AB
:10180000EF90DF90CF900895789484B5826084BD86
:1018100084B5816084BD85B5826085BD85B58160F4
:1018200085BDEEE6F0E0808181608083E1E8F0E054
:101830001082808182608083808181608083E0E883
:10184000F0E0808181608083E1EBF0E08081846062
:101850008083E0EBF0E0808181608083EAE7F0E064
:1018600080818460808380818260808380818160C8
:1018700080838081806880831092C10008958330C6
:1018800081F028F4813099F08230A1F008958730FA
:10189000A9F08830B9F08430D1F4809180008F7D38
:1018A00003C0809180008F7780938000089584B575
:1018B0008F7702C084B58F7D84BD08958091B0007C
:1018C0008F7703C08091B0008F7D8093B000089522
:1018D000CF93DF9390E0FC01E657FF4F2491FC018A
:1018E000E256FF4F8491882349F190E0880F991FB9
:1018F000FC01E454FF4FA591B4918E549F4FFC011D
:10190000C591D4919FB7611108C0F8948C9120952E
:1019100082238C93888182230AC0623051F4F89428
:101920008C91322F309583238C938881822B8883EE
:1019300004C0F8948C91822B8C939FBFDF91CF9140
:1019400008950F931F93CF93DF931F92CDB7DEB708
:10195000282F30E0F901EA58FF4F8491F901E6574A
:10196000FF4F1491F901E256FF4F04910023C9F093
:10197000882321F069830E943F0C6981E02FF0E009
:10198000EE0FFF1FEE54FF4FA591B4919FB7F8944F
:101990008C91611103C01095812301C0812B8C9320
:1019A0009FBF0F90DF91CF911F910F910895FC0180
:1019B000818D228D90E0805C9F4F821B91098F73F7
:1019C00099270895FC01918D828D981731F0828DB1
:1019D000E80FF11D858D90E008958FEF9FEF08953A
:1019E000FC01918D828D981761F0828DDF01A80F27
:1019F000B11D5D968C91928D9F5F9F73928F90E049
:101A000008958FEF9FEF089584E79EE0892B49F0BA
:101A100080E090E0892B29F00E94740E81110C94D3
:101A200000000895FC01848DDF01A80FB11DA35AA9
:101A3000BF4F2C91848D90E001968F739927848FEE
:101A4000A689B7892C93A089B1898C9180648C93E5
:101A5000938D848D981306C00288F389E02D8081D0
:101A60008F7D80830895CF93DF93EC01888D882349
:101A7000C9F0EA89FB89808185FD05C0A889B989FB
:101A80008C9186FD0FC00FB607FCF5CF808185FFD6
:101A9000F2CFA889B9898C9185FFEDCFCE010E9444
:101AA000120DE7CFDF91CF910895CF92DF92FF9291
:101AB0000F931F93CF93DF931F92CDB7DEB76C01C7
:101AC00081E0D60158968C9358975B969C915B97D2
:101AD0005C968C915C97981307C05096ED91FC91A1
:101AE0005197808185FD2EC0F601038D10E00F5FB8
:101AF0001F4F0F731127F02EF601848DF81211C0BD
:101B00000FB607FCF9CFD6015096ED91FC91519795
:101B1000808185FFF1CFC60169830E94120D698122
:101B2000EBCF838DE80FF11DE35AFF4F6083D601A1
:101B30005B960C935B975296ED91FC915397808145
:101B400080620CC0D6015696ED91FC915797608348
:101B50005096ED91FC91519780818064808381E063
:101B600090E00F90DF91CF911F910F91FF90DF9048
:101B7000CF900895BF92CF92DF92EF92FF92CF93D2
:101B8000DF93EC016A017B01B22EE889F98982E0DA
:101B90008083411581EE580761057105A1F060E071
:101BA00079E08DE390E0A70196010E947511215024
:101BB00031094109510956954795379527952115C2
:101BC00080E1380798F0E889F989108260E874E8C4
:101BD0008EE190E0A70196010E9475112150310914
:101BE000410951095695479537952795EC85FD850F
:101BF0003083EE85FF852083188EEC89FD89B082C5
:101C0000EA89FB89808180618083EA89FB89808100
:101C100088608083EA89FB89808180688083EA8983
:101C2000FB8980818F7D8083DF91CF91FF90EF9042
:101C3000DF90CF90BF9008951F920F920FB60F9232
:101C400011242F938F939F93EF93FF93E09126049A
:101C5000F09127048081E0912C04F0912D0482FD05
:101C600012C0908180912F048F5F8F732091300478
:101C7000821751F0E0912F04F0E0EA5EFB4F958F60
:101C800080932F0401C08081FF91EF919F918F91EC
:101C90002F910F900FBE0F901F9018951F920F92CB
:101CA0000FB60F9211242F933F934F935F936F932F
:101CB0007F938F939F93AF93BF93EF93FF9386E1AF
:101CC00094E00E94120DFF91EF91BF91AF919F910F
:101CD0008F917F916F915F914F913F912F910F90D5
:101CE0000FBE0F901F90189586E194E00E94D70CCC
:101CF00021E0892B09F420E0822F08951092190425
:101D00001092180488EE93E0A0E0B0E080931A04EB
:101D100090931B04A0931C04B0931D0486EB92E0E7
:101D2000909317048093160485EC90E0909323041D
:101D30008093220484EC90E0909325048093240403
:101D400080EC90E0909327048093260481EC90E04F
:101D5000909329048093280482EC90E090932B04C4
:101D600080932A0486EC90E090932D0480932C04B9
:101D700010922F0410923004109231041092320409
:101D8000089508950E94040C0E94C10E0E947302DF
:101D9000C4E0DDE00E947D052097E1F30E94040D80
:101DA000F9CFCF92DF92EF92FF920F931F93CF93D1
:101DB000DF937C016A01EB0100E010E00C151D05CA
:101DC00071F06991D701ED91FC910190F081E02DC6
:101DD000C7010995892B19F00F5F1F4FEFCFC8017D
:101DE000DF91CF911F910F91FF90EF90DF90CF90F7
:101DF00008956115710581F0DB010D900020E9F770
:101E0000AD0141505109461B570BDC01ED91FC918E
:101E10000280F381E02D099480E090E00895DC01D8
:101E2000ED91FC91DB0114964D915C9115976D91AC
:101E30007C910280F381E02D09940C94F90EDC0171
:101E4000ED91FC910190F081E02D099467E572E03D
:101E50000C94F90E0F931F93CF93DF93EC010E9424
:101E60000F0F8C01CE010E94260F800F911FDF9172
:101E7000CF911F910F9108950F931F93CF93DF93ED
:101E8000EC010E94F90E8C01CE010E94260F800FFA
:101E9000911FDF91CF911F910F9108950F931F9381
:101EA000CF93DF93EC010E941F0F8C01CE010E94A3
:101EB000260F800F911FDF91CF911F910F910895F1
:101EC0008F929F92AF92BF92CF92DF92EF92FF924A
:101ED0000F931F93CF93DF93CDB7DEB7A1970FB6C4
:101EE000F894DEBF0FBECDBF7C01C42EE52FCB0121
:101EF000D22E19A221E02D1510F02AE0D22E8E014B
:101F00000F5D1F4F8D2C912CA12CB12C6C2D7E2F91
:101F1000A50194010E9475118C2DD29E8019112467
:101F2000015011098A3014F4805D01C0895CF80108
:101F30008083211531054105510521F0C22EE32F83
:101F4000CA01E4CFB801C7010E94F90EA1960FB6ED
:101F5000F894DEBF0FBECDBFDF91CF911F910F91DF
:101F6000FF90EF90DF90CF90BF90AF909F908F90B9
:101F70000895CF92DF92EF92FF920F931F93CF932A
:101F8000DF93EC016A017B012115310579F4E881C9
:101F9000F9810190F081E02D642FDF91CF911F91A5
:101FA0000F91FF90EF90DF90CF9009942A30310588
:101FB000E9F477FF1AC06DE20E941F0F8C014427DD
:101FC0005527BA014C195D096E097F092AE0CE0137
:101FD0000E94600F800F911FDF91CF911F910F9191
:101FE000FF90EF90DF90CF9008952AE0B701A6010F
:101FF000CE01DF91CF911F910F91FF90EF90DF9075
:10200000CF900C94600F9A01AB01662757FD609545
:10201000762F0C94B90F2115310541F4DC01ED91B7
:10202000FC910190F081E02D642F09940C94600FD5
:102030009A01462F50E060E070E00C940B100F9373
:102040001F93CF93DF93EC019A01AB0160E070E046
:102050000E940B108C01CE010E94260F800F911F51
:10206000DF91CF911F910F910895FC0180819181A3
:102070000C943512CF93DF93EC01888199810097FE
:1020800011F00E943512198218821D821C821B8257
:102090001A82DF91CF9108950F931F93CF93DF930F
:1020A000EC018B016F5F7F4F888199810E94C41280
:1020B000009731F0998388831B830A8381E001C0F4
:1020C00080E0DF91CF911F910F910895CF93DF931F
:1020D000EC0188819981892B29F08A819B8186175F
:1020E000970760F4CE010E944C10882341F08C8148
:1020F0009D81892B19F4E881F981108281E0DF91BB
:10210000CF910895EF92FF920F931F93CF93DF9398
:10211000EC017B018A01BA010E946610811104C0A2
:10212000CE010E943A1007C01D830C83B70188813D
:1021300099810E949713CE01DF91CF911F910F914A
:10214000FF90EF900895FC01118210821382128299
:10215000158214826115710559F0FB010190002070
:10216000E9F7AF0141505109461B570B0C948210FF
:1021700008950F931F93CF93DF938C01EB01FC0124
:1021800080819181009799F0428153812C813D811A
:102190004217530750F0688179810E9497138C8110
:1021A0009D81F8019583848313C00E943512888134
:1021B0009981F801918380838A819B8193838283B3
:1021C0008C819D8195838483198218821B821A8257
:1021D0001D821C82DF91CF911F910F910895CF93A3
:1021E000DF93EC01FB018617970761F06081718135
:1021F0006115710529F0448155810E94821002C049
:102200000E943A10CE01DF91CF910895FC01118216
:10221000108213821282158214820C94EF10CF93D5
:10222000DF93EC018617970711F00E94B910CE01D9
:10223000DF91CF910895EF92FF920F931F93CF9369
:10224000DF93EC017B010C811D816115710511F497
:1022500080E016C04115510591F0040F151FB8011B
:102260000E9466108823A1F3288139818C819D8189
:10227000B701820F931F0E9497131D830C8381E087
:10228000DF91CF911F910F91FF90EF900895CF9321
:10229000DF9300D0CDB7DEB769831A8241E050E00A
:1022A000BE016F5F7F4F0E941B110F900F90DF9157
:1022B000CF910895CF93DF93EC010E9447118111D4
:1022C00003C0CE010E943A10CE01DF91CF91089554
:1022D0000895991B79E004C0991F961708F0961B82
:1022E000881F7A95C9F780950895A1E21A2EAA1B36
:1022F000BB1BFD010DC0AA1FBB1FEE1FFF1FA217B6
:10230000B307E407F50720F0A21BB30BE40BF50BB2
:10231000661F771F881F991F1A9469F7609570953B
:10232000809590959B01AC01BD01CF010895EE0F02
:10233000FF1F0590F491E02D0994CF93DF93823035
:10234000910510F482E090E0E091B504F091B604BC
:1023500020E030E0A0E0B0E0309739F140815181D9
:1023600048175907B8F04817590771F482819381CB
:10237000109729F013969C938E9312972CC09093EC
:10238000B6048093B50427C02115310531F04217FA
:10239000530718F0A901DB0101C0EF019A01BD014B
:1023A000DF010280F381E02DD7CF21153105F9F04F
:1023B000281B390B2430310580F48A819B816115FB
:1023C000710521F0FB019383828304C09093B604CE
:1023D0008093B504FE01329644C0FE01E20FF31F64
:1023E0008193919322503109398328833AC02091F7
:1023F000B3043091B404232B41F4209102013091B5
:1024000003013093B4042093B30420910001309170
:1024100001012115310541F42DB73EB7409104016A
:1024200050910501241B350BE091B304F091B404E5
:10243000E217F307A0F42E1B3F0B2817390778F09B
:10244000AC014E5F5F4F2417350748F04E0F5F1FFA
:102450005093B4044093B3048193919302C0E0E09D
:10246000F0E0CF01DF91CF910895CF93DF930097F4
:1024700009F487C0FC01329713821282C091B5041F
:10248000D091B604209781F420813181280F391F23
:102490008091B3049091B4048217930779F5F09377
:1024A000B404E093B3046DC0DE0120E030E0AE1769
:1024B000BF0750F412964D915C9113979D01411501
:1024C000510509F1DA01F3CFB383A2834081518131
:1024D000840F951F8A179B0771F48D919C9111971A
:1024E000840F951F02969183808312968D919C9103
:1024F0001397938382832115310529F4F093B60451
:10250000E093B5043EC0D9011396FC93EE93129765
:102510004D915D91A40FB51FEA17FB0779F48081F7
:102520009181840F951F0296D90111969C938E93E9
:102530008281938113969C938E931297E0E0F0E052
:102540008A819B81009719F0FE01EC01F9CFCE0141
:10255000029628813981820F931F2091B304309114
:10256000B4042817390769F4309729F41092B60497
:102570001092B50402C013821282D093B404C093A7
:10258000B304DF91CF910895A0E0B0E0EAECF2E16E
:102590000C94A213EC01CB01209719F40E949D1119
:1025A000B8C0FE01E60FF71F9E0122503109E21765
:1025B000F30708F4ACC0D9010D911C9111970617CF
:1025C0001707B8F00530110508F49FC0A801445062
:1025D00051094617570708F498C002501109061B05
:1025E000170B019311936D937C93CF010E943512C9
:1025F0008CC05B01A01AB10A4E01800E911EA09101
:10260000B504B091B604612C712C60E070E01097B5
:1026100009F449C0A815B905C9F5ED90FC901197CA
:10262000670142E0C40ED11CCA14DB0478F14701F3
:102630008A189B08640142E0C40ED11C1296BC901B
:1026400012971396AC91B5E0CB16D10440F0B2824C
:10265000A38391828082D9018D939C9309C00E5FE0
:102660001F4F0E0D1F1DF90111830083EB2DFA2F53
:102670006115710531F0DB011396FC93EE9312970F
:1026800044C0F093B604E093B5043FC06D917C91D3
:1026900011976616770608F43B01BD0112960D905E
:1026A000BC91A02DB4CF6091B3047091B4046815AF
:1026B0007905E9F468167906D0F44091000150914B
:1026C00001014115510541F44DB75EB76091040118
:1026D00070910501461B570BE417F507C0F4F09302
:1026E000B404E093B304F901918380830EC00E9487
:1026F0009D117C01009759F0A801BE010E948E1324
:10270000CE010E943512C70104C0CE0102C080E094
:1027100090E0CDB7DEB7EEE00C94BE13FB01DC0118
:1027200002C001900D9241505040D8F70895FB012E
:10273000DC0101900D920020E1F708952F923F9265
:102740004F925F926F927F928F929F92AF92BF92C1
:10275000CF92DF92EF92FF920F931F93CF93DF936D
:10276000CDB7DEB7CA1BDB0B0FB6F894DEBF0FBECA
:10277000CDBF09942A88398848885F846E847D8417
:102780008C849B84AA84B984C884DF80EE80FD8019
:102790000C811B81AA81B981CE0FD11D0FB6F8948F
:0E27A000DEBF0FBECDBFED010895F894FFCF50
:1027AE000000B704800001004F70656E6564210063
:1027BE00436C6F73656421005265636F7264696E5A
:1027CE00672064656661756C740044656661756C3E
:1027DE007420696E2053797374656D00564D4450A4
:1027EE00565F317C315F564D4450560D0A004461A0
:1027FE0074613A20002F00486F7261203A20002C3D
:10280E0020446F6D696E676F002C20536567756E7F
:10281E006461002C205465726361002C2051756137
:10282E00727461002C205175696E7461002C2053F6
:10283E0065787461002C2053616261646F00706171
:10284E007373776F72643A00416363657373657374
:10285E002044656E69656400757365726E616D65A1
:10286E003A00456E746572206461746520696E204D
:10287E0074686520666F726D61742030302F303051
:10288E002F30302000456E7465722074696D65209E
:10289E00696E2074686520666F726D6174203030C9
:1028AE003A30303A303020007C00436F6E666967F4
:1028BE00757265204461746520616E642054696D83
:1028CE0065005265636F726465640053686F776963
:1028DE006E672054696D6500564D4450455F003A51
:1028EE00323A005F564D44504500564D4450435FBA
:1028FE00005F564D4450430D0A004572726F723A96
:10290E0020417474656D707420746F20736574202B
:10291E006120726561642D6F6E6C792076617269CB
:10292E0061626C65206F72206461746120747970CD
:10293E0065206E6F7420737570706F727465640DA0
:10294E000A00000000007D08500825082D084008E8
:10295E004F0800000000550DD10ED70CF00CE20C04
:10296E00330D6E616E00696E66006F7666002E0026
:00000001FF
