:100000000C9469000C9491000C9491000C94910054
:100010000C9491000C9491000C9491000C9491001C
:100020000C9491000C9491000C9491000C9491000C
:100030000C9491000C9491000C9491000C949100FC
:100040000C94A8190C9491000C94611C0C94931CB2
:100050000C9491000C9491000C9491000C949100DC
:100060000C947B180C949100340437043A043D043A
:10007000400443044604000000080002010000039D
:100080000407000000000000000001020408102026
:10009000408001020408102001020408102004041A
:1000A0000404040404040202020202020303030320
:1000B000030300000000250028002B0000000000C2
:1000C000240027002A00DF02390A900C49169117F4
:1000D000C31C11241FBECFEFD8E0DEBFCDBF15E09B
:1000E000A0E0B1E0E6E5F5E402C005900D92A83D80
:1000F000B107D9F72AE0A8EDB5E001C01D92A03103
:10010000B207E1F710E0C2EDD0E004C02297FE0193
:100110000E945E20C63CD107C9F70E94071D0C94BF
:10012000A9220C9400006AE00E941A2020E1829F1C
:10013000900D1124892F0895982F92959F708F709C
:100140002AE0929F800D112408958033F9F08133C5
:10015000F9F08233F9F08333F9F08433F9F0853321
:10016000F9F08633F9F08733F9F08833F9F0893301
:10017000F9F08136F9F08236F9F08336F9F08436F9
:10018000F9F08536F9F08636F9F0089580E01DC063
:1001900081E01BC082E019C083E017C084E015C075
:1001A00085E013C086E011C087E00FC088E00DC075
:1001B00089E00BC08AE009C08BE007C08CE005C075
:1001C0008DE003C08EE001C08FE090E008950F93B2
:1001D0001F93CF93DF93CDB7DEB72F970FB6F89469
:1001E000DEBF0FBECDBF0DE010E02FE030E040E0FD
:1001F00050E0B80188ED95E00E94D6136BE971E0FC
:10020000CE010A960E94121F20E030E049E050E043
:10021000BE016F5F7F4FCE010A960E94EF1FB801AB
:100220006C5F7F4F29E030E0AE014F5F5F4F88ED9C
:1002300095E00E94EE13035F1F4FCE010A960E94C5
:10024000A41E0F3F8FE0180781F62F960FB6F89483
:10025000DEBF0FBECDBFDF91CF911F910F910895EB
:10026000CF93DF93CDE0D0E0BE0188ED95E00E9412
:1002700086146F3071058105910541F02D96CF3FB1
:100280008FE0D80789F788E893E101C0CE01DF91BC
:10029000CF910895CF92DF92EF92FF920F931F9329
:1002A000CF93DF93CDB7DEB762970FB6F894DEBF7A
:1002B0000FBECDBF20E030E049E050E0BE01665FF8
:1002C0007F4F0E94EF1F29E030E0AE014F5F5F4F8C
:1002D00064E070E088ED95E00E94971464EA71E0B4
:1002E0008FE699E00E94621DBE016F5F7F4F8FE62F
:1002F00099E00E94811D63EB71E08FE699E00E9416
:10030000811D7E0183E1E80EF11C8E01065F1F4F07
:10031000F80161918F018FE699E00E94641D0E152E
:100320001F05B1F729E030E0AE014F5F5F4F64E099
:1003300070E088ED95E00E94971461EC71E08FE623
:1003400099E00E94621DBE016F5F7F4F8FE699E0CA
:100350000E94811D04E010E08AE0C82ED12CCC0E52
:10036000DD1EFAE0CF0ED11C4AE050E0B8018FE666
:1003700099E00E94481E29E030E0AE014F5F5F4FD8
:10038000B80188ED95E00E94971466ED71E08FE664
:1003900099E00E94621DBE016F5F7F4F8FE699E07A
:1003A0000E94811DDE011196FE013A96E12CF12C8E
:1003B00091918D91981303C08FEFE81AF80AEC150C
:1003C000FD05B1F767EE71E08FE699E00E94621DCE
:1003D0004AE050E0B7018FE699E00E94481EE9E04C
:1003E000EE16F10419F4C801049709C0035F1F4F0A
:1003F0000330F0E11F0709F0B7CF88E893E1629678
:100400000FB6F894DEBF0FBECDBFDF91CF911F9125
:100410000F91FF90EF90DF90CF9008955F926F92D1
:100420007F928F929F92AF92BF92CF92DF92EF9284
:10043000FF920F931F93CF93DF93CDB7DEB76B97E8
:100440000FB6F894DEBF0FBECDBF63E675E0CE01F8
:1004500046960E94121F0DE010E0E12CF12C5E0187
:1004600089E0A80EB11C6E019AE0C90ED11C7C2C4B
:100470006D2CB80188ED95E00E9486146F307105EF
:100480008105910509F455C029E030E0AE014F5FC8
:100490005F4FB8016C5F7F4F88ED95E00E94971425
:1004A000FE0131964F01F4018081855081934F0107
:1004B0006AE070E080E090E00E94211A8A149B04B8
:1004C00091F7CE0101964C01F40151904F01BE010C
:1004D0006A5E7F4FCE0140960E94751F652DCE014A
:1004E00040960E94E11FBC01872D962D0E94751F2A
:1004F000672D762DCE0146960E947E1F872D962D64
:100500000E94A41ECE0140960E94A41E8C149D043D
:10051000D9F66AE070E080E090E00E94211AFFEFD7
:10052000EF1AFF0ABE016A5E7F4F8FE699E00E94D4
:100530006F1D035F1F4F0F3F8FE0180709F099CF22
:10054000CE0146960E94A41EC7016B960FB6F89482
:10055000DEBF0FBECDBFDF91CF911F910F91FF90F6
:10056000EF90DF90CF90BF90AF909F908F907F9053
:100570006F905F9008954AE050E062E070E08FE68F
:1005800099E00E94481E61E081E10E94E61A68EB52
:100590007BE080E090E00E94211A4AE050E064E0B5
:1005A00070E08FE699E00E94481E60E081E10E94C1
:1005B000E61A6AE070E080E090E00C94211A83EE85
:1005C00095E00E94D70988ED95E00C942B1368EF15
:1005D00071E08FE699E00E94811D68E670E086EA8E
:1005E00098E00E94151760E086EA98E00E94C21623
:1005F00060E486EA98E00E94C21669E586EA98E01F
:100600000E94C21663E286EA98E00E94C21661E088
:1006100086EA98E00E94C21667E186EA98E00E94A6
:10062000C21664E086EA98E00E94C21663E186EA98
:1006300098E00E94C21660E086EA98E00E94C21626
:1006400086EA98E00E948E176AE070E080E090E011
:100650000E94211A6AE072E08FE699E00C94811DF5
:1006600048EB5BE060E070E08EE598E00E94921558
:1006700020E835E240E050E06FE679E08EE598E072
:100680000E94A61561E08EE598E00E945C15882323
:10069000A1F06CE172E08091A0089091A1080E9405
:1006A000621D4AE050E060E070E08EE598E00E9454
:1006B000C0148EE598E00E94911541E060E08EE55F
:1006C00098E00E942D1626E040E855E260E070E0D8
:1006D0008FE699E00E94FF1B61E081E10E94AD1A64
:1006E00086EA98E00E9401170E94E70264E670E043
:1006F00080E090E00E94211A8FE699E00C946B1D37
:10070000DF92EF92FF920F931F93CF93DF9368E6F0
:1007100070E086EA98E00E94151760E086EA98E0AB
:100720000E94C21686EA98E00E948E1747E050E0C9
:1007300068E670E086EA98E00E948B1786EA98E007
:100740000E9472160E949C00D82F86EA98E00E94B0
:1007500072160E949C00182F86EA98E00E9472167A
:100760008F730E949C00082F86EA98E00E94721600
:100770000E949C00C82F86EA98E00E9472160E9490
:100780009C00D82E86EA98E00E9472160E949C0077
:10079000E82E86EA98E00E9472160E949C00F82ECD
:1007A00066E672E08FE699E00E94621D6D2D70E0B2
:1007B0004AE050E08FE699E00E94481E6DE672E044
:1007C0008FE699E00E94621D6E2D70E04AE050E0D5
:1007D0008FE699E00E94481E6DE672E08FE699E090
:1007E0000E94621D6F2D70E04AE050E08FE699E0B4
:1007F0000E94481E6DE273E08FE699E00E94621D40
:100800006FE672E08FE699E00E94621D602F70E053
:100810004AE050E08FE699E00E94481E6EEB72E0DD
:100820008FE699E00E94621D612F70E04AE050E07F
:100830008FE699E00E94481E6EEB72E08FE699E029
:100840000E94621D6D2F70E04AE050E08FE699E053
:100850000E94481E8C2F90E08730910520F5FC0106
:10086000EC5CFF4F0C945C2067E772E011C061E81C
:1008700072E00EC06BE872E00BC063E972E008C082
:100880006CE972E005C065EA72E002C06DEA72E0F0
:100890008FE699E0DF91CF911F910F91FF90EF903C
:1008A000DF900C94811DDF91CF911F910F91FF90EC
:1008B000EF90DF9008952F923F924F925F926F9248
:1008C0007F928F929F92AF92BF92CF92DF92EF92E0
:1008D000FF920F931F93CF93DF93CDB7DEB72A9785
:1008E0000FB6F894DEBF0FBECDBF6CE073E08FE6AD
:1008F00099E00E94811D8FE699E00E94781B7E019D
:1009000088E0E80EF11C8E010F5F1F4F8FE699E023
:100910000E941C1B892BD1F38FE699E00E94351BA6
:10092000F80181938F01EE15FF0581F76980772427
:1009300067FC7094F0E36F1A71080A81112707FDB4
:100940001095005311098B80992487FC909480E3C3
:10095000881A9108AC80BB24A7FCB09490E3A91A34
:10096000B108CF80DD24C7FCD094E0E3CE1AD108D3
:100970006AE070E080E090E00E94211A8AE0869DA3
:100980007001879DF00C1124E00EF11E889D8001FE
:10099000899D100D11240A0D1B1D6FE273E08FE677
:1009A00099E00E94811D8FE699E00E94781B8824BF
:1009B0008394912C8C0E9D1EF6E08F0E911CCE011F
:1009C00001965C018FE699E00E941C1B892BD1F3F4
:1009D0008FE699E00E94351BF50181935F01E815D0
:1009E000F90581F78980992487FC9094F0E38F1AA8
:1009F0009108AA80BB24A7FCB09480E3A81AB10890
:100A00004B80552447FC509490E3491A51086C8060
:100A1000772467FC7094E0E36E1A71082D81332708
:100A200027FD3095205331092E80332427FC309444
:100A3000F0E32F1A31086AE070E080E090E0298747
:100A40003A870E94211A68E670E086EA98E00E94E0
:100A5000151760E086EA98E00E94C2161AE0298520
:100A6000822D129F800D11240E949300682F86EA28
:100A700098E00E94C216862D149D800D11240E94BC
:100A80009300682F86EA98E00E94C2168A2D189D6E
:100A9000800D11240E949300682F86EA98E00E943E
:100AA000C2168C2D0E949300682F86EA98E00E945F
:100AB000C2168E2D0E949300682F86EA98E00E944D
:100AC000C216802F0E949300182F682F86EA98E0A4
:100AD0000E94C216612F86EA98E00E94C21660E06A
:100AE00086EA98E00E94C21686EA98E02A960FB637
:100AF000F894DEBF0FBECDBFDF91CF911F910F9154
:100B0000FF90EF90DF90CF90BF90AF909F908F902D
:100B10007F906F905F904F903F902F900C948E1726
:100B2000CF938FE699E00E941C1B892BD1F38FE6AF
:100B300099E00E94351BC82F6AE070E080E090E0E9
:100B40000E94211A6C2F8FE699E00E94931D6AE0A3
:100B500070E080E090E00E94211A8C2FCF910895E0
:100B6000CF92DF92EF92FF92CF93DF9362E573E033
:100B70008FE699E00E94811DC8E0D0E060E070E05F
:100B8000CB016B017C0134E0CC0CDD1CEE1CFF1CA6
:100B90003A95D1F70E9490050E94A500BC018827D4
:100BA00077FD8095982F6C0D7D1D8E1D9F1D2197C3
:100BB00041F7DF91CF91FF90EF90DF90CF900895B4
:100BC0009F92AF92BF92CF92DF92EF92FF920F93DC
:100BD0001F93CF93DF93CDB7DEB76C970FB6F89422
:100BE000DEBF0FBECDBF7C0163E675E00E94121F21
:100BF0006DE673E08FE699E00E94811D6E0181E150
:100C0000C80ED11CFE0131965F010E949005F4E0F0
:100C10008F02800111240C5E1F4F169507951695C3
:100C20000795F501019311935F014AE050E0B80187
:100C30008FE699E00E947C1E602F8FE699E00E946B
:100C4000931D6AE070E080E090E00E94211AAC14ED
:100C5000BD04D9F6AA24A394B12CAC0EBD1EF2E1BA
:100C6000AF0EB11C8E010F5F1F4FF80190800E5F19
:100C70001F4FB701CE0147960E94751F692DCE0107
:100C800047960E94E11FBC01C6010E94751FB60174
:100C9000C7010E947E1FC6010E94A41ECE01479676
:100CA0000E94A41E0A151B0501F7B7018FE699E003
:100CB0000E946F1DC7016C960FB6F894DEBF0FBE81
:100CC000CDBFDF91CF911F910F91FF90EF90DF90FB
:100CD000CF90BF90AF909F900895CF92DF92EF9208
:100CE000FF920F931F93CF93DF93CDB7DEB72F976C
:100CF0000FB6F894DEBF0FBECDBFCE010A960E949C
:100D0000E0050E94B0056B017C010E9430018C015E
:100D100067E773E08FE699E00E94621D4AE050E0C9
:100D2000B8018FE699E00E94481E083883E1180751
:100D300019F463E973E020C0A7019601B80188EDBA
:100D400095E00E94D61320E030E049E050E0BE017B
:100D50006F5F7F4FCE010A960E94EF1FB8016C5F54
:100D60007F4F29E030E0AE014F5F5F4F88ED95E0A7
:100D70000E94EE136DE973E08FE699E00E94621D18
:100D8000CE010A960E94A41E2F960FB6F894DEBFDD
:100D90000FBECDBFDF91CF911F910F91FF90EF90CC
:100DA000DF90CF9008950F931F93CF93DF93CDB72C
:100DB000DEB72F970FB6F894DEBF0FBECDBFCE01C2
:100DC0000A960E94E005BE01665F7F4FCE01019644
:100DD0000E94751FCE0101960E944A018C01CE012E
:100DE00001960E94A41E083883E1180719F463EAEB
:100DF00073E028C02FE030E040E050E0B80188ED1B
:100E000095E00E94D6136BE971E0CE010A960E942C
:100E10008A1F20E030E049E050E0BE016F5F7F4F65
:100E2000CE010A960E94EF1FB8016C5F7F4F29E048
:100E300030E0AE014F5F5F4F88ED95E00E94EE130A
:100E400063EB73E08FE699E00E94621DCE010A9683
:100E50000E94A41E2F960FB6F894DEBF0FBECDBF22
:100E6000DF91CF911F910F9108950F931F93CF930F
:100E7000DF93CDB7DEB765970FB6F894DEBF0FBE30
:100E8000CDBFCE0140960E94E005BE01605F7F4F5E
:100E9000CE0101960E94751FCE0101960E944A0163
:100EA0008C01CE0101960E94A41E083883E1180728
:100EB00039F463EA73E08FE699E00E94621D2EC068
:100EC000CE010A960E94E0050E94B0059B01AC018C
:100ED000B80188ED95E00E94D61320E030E049E0AB
:100EE00050E0BE016F5F7F4FCE010A960E94EF1F58
:100EF000B8016C5F7F4F29E030E0AE014F5F5F4F7C
:100F000088ED95E00E94EE136BEB73E08FE699E0BD
:100F10000E94621DCE010A960E94A41ECE01409638
:100F20000E94A41E65960FB6F894DEBF0FBECDBF1B
:100F3000DF91CF911F910F9108958F929F92AF9261
:100F4000BF92CF92DF92EF92FF920F931F93CF93B6
:100F5000DF93CDB7DEB72C970FB6F894DEBF0FBE88
:100F6000CDBFCE0107960E94E00563EC73E08FE6EB
:100F700099E00E94811DBE01695F7F4F8FE699E075
:100F80000E946F1D0E94B0056B017C0161ED73E052
:100F90008FE699E00E94811D2AE030E0B701A601AA
:100FA0008FE699E00E94921EBE01695F7F4FCE01DD
:100FB00001960E94751FCE0101960E944A018C0184
:100FC000CE0101960E94A41E6FED73E08FE699E0BA
:100FD0000E94811D4AE050E0B8018FE699E00E942E
:100FE000501E083883E1180719F463EA73E021C042
:100FF000B80188ED95E00E9486144B015C0162EF18
:1010000073E08FE699E00E94811D012B31F4C81432
:10101000D904EA04FB0459F413C0C814D904EA043F
:10102000FB0429F40E94BB0202E010E00BC064E163
:1010300074E08FE699E00E94621D00E010E002C0BB
:1010400001E010E0CE0107960E94A41EC8012C9674
:101050000FB6F894DEBF0FBECDBFDF91CF911F91C9
:101060000F91FF90EF90DF90CF90BF90AF909F9047
:101070008F90089564E274E08FE699E00E94811DEC
:1010800063E474E08FE699E00E94811D64E670E0FD
:1010900080E090E00E94211A6AE78FE699E00E94C2
:1010A000931D0E949005813689F461E674E08FE615
:1010B00099E00E94811D6AE070E080E090E00E946B
:1010C000211A0E945B0469E774E027C08236C9F4E4
:1010D00062E874E08FE699E00E94811D0E9480031F
:1010E0006AE070E080E090E00E94211A6DE273E017
:1010F0008FE699E00E94811D8FE699E00E946B1DAA
:10110000D0CF833679F46FE874E08FE699E00E94DF
:10111000811D0E94E70067EA74E08FE699E00E9473
:10112000811DBFCF843689F40E940E02EC0164EB6E
:1011300074E08FE699E00E94811D4AE050E0BE0114
:101140008FE699E00E94501EACCF853619F40E94BC
:101150006D06A7CF863619F40E94D306A2CF873634
:1011600009F09FCF0E9435079CCF0E949D070197F1
:1011700011F40E943A080895CF92DF92EF92FF9205
:101180000F931F930E94F219672B682B692B39F478
:101190000E94F2196230710581059105B0F18EE56A
:1011A00098E00E94C3146093FE057093FF0580933E
:1011B000000690930106009102061091030620910B
:1011C000040630910506601771078207930740F403
:1011D00060930206709303068093040690930506BD
:1011E0000091020610910306209104063091050635
:1011F0006B017C01C01AD10AE20AF30A9701860149
:101200000A3F11052105310540F41F910F91FF9010
:10121000EF90DF90CF900C94B50860930206709326
:101220000306809304069093050644EF51E060E0C6
:1012300070E08EE598E00E94C51461E08EE598E0CC
:101240000E945C15882309F161E08EE598E00E9418
:10125000E11468E275E08091A0089091A1080E94D5
:10126000621D0E94F219AB01BC012AE030E08091BE
:10127000A0089091A1080E94681E8EE598E00E9447
:1012800047158EE598E00E94911545E050E060E03A
:1012900070E08EE598E00E94C0148EE598E00E9410
:1012A0005015B3CFCF93DF931F92CDB7DEB76983CD
:1012B000DC01ED91FC910280F381E02D41E050E0F2
:1012C000BE016F5F7F4F09950F90DF91CF91089519
:1012D000CF93DF93EC01898D9A8D009759F0FC0133
:1012E000138212820E94C40EE98DFA8D228133810D
:1012F000232B31F081E090E09B838A8380E090E0B3
:10130000DF91CF910895FC01818D928D009711F0AE
:101310000C947D0E0895CF93DF931F92CDB7DEB767
:1013200041E050E0BE016F5F7F4F0E94D90C0197F2
:1013300019F4898190E002C08FEF9FEF0F90DF9149
:10134000CF910895FC01818D928D009711F00C943E
:101350008B098FEF9FEF08950F931F93CF93DF9328
:101360008C01FC01818D928D0097B9F00E948B0950
:10137000EC018F3FFFEF9F0799F0F801818D928D6F
:10138000FC01428553856485758541505109610989
:1013900071090E94E10DCE0105C080E090E002C01D
:1013A0008FEF9FEFDF91CF911F910F910895FC0177
:1013B0001382128248EE53E060E070E0448355836C
:1013C000668377838EE295E091838083128E118EFF
:1013D00014860895DC015996ED91FC915A97309747
:1013E00029F0628573858485958508956FEF7FEF79
:1013F000CB010895DC015996ED91FC915A973097F5
:1014000029F06389748985899689089560E070E080
:10141000CB010895CF92DF92EF92FF92CF93DF93AB
:10142000EC01898D9A8D892BD9F0CE010E94FA09A1
:101430006B017C01CE010E94EA09A7019601261BDF
:10144000370B480B590BDA01C901811530E89307B6
:10145000A105B10538F08FEF9FE7A0E0B0E002C032
:1014600080E090E0DF91CF91FF90EF90DF90CF9000
:10147000089510920B0610920C0610920F0610920F
:10148000110682E090E0A0E0B0E080931206909315
:101490001306A0931406B093150610922906109215
:1014A0003306109232068EE395E0909331068093D6
:1014B00030061092350608959FB7F89420915D0884
:1014C00080915B08213019F48DBB9FBF08958FBFB9
:1014D000089520915D08222399F03FB7F894209158
:1014E0005D08213059F42DB320935B084DB3209152
:1014F0005C08209524232DBB3FBF02C030935B08BE
:101500008CBD9DBD08958EBD00000DB407FEFDCFBE
:101510008EB508958FEF0C94830A61E0FC018481FD
:101520000E94E61A80914F06882339F010924F06E8
:1015300080915D0881110C945C0A0895CF93DF932C
:10154000EC0180914F06811109C081E080934F0624
:1015500080915006909151060E94690A60E08C814A
:10156000DF91CF910C94E61ACF93DF93EC018E813B
:10157000882389F08F8198859C012F5F3F4F3887A2
:101580002F838230924018F40E948A0AF3CFCE0152
:101590000E948D0A1E82DF91CF9108950F931F93B1
:1015A000CF93DF93EB010E94F2198B010E948A0A0C
:1015B0008F3F49F00E94F219601B710B6C177D0779
:1015C000A8F380E001C081E0DF91CF911F910F91DE
:1015D0000895CF92DF92FF920F931F93CF93DF93E3
:1015E00000D000D0CDB7DEB76C01F62E29833A8348
:1015F0004B835C830E94B40AC6010E949E0A6CE27F
:1016000071E0C6010E94CE0A8F2D80640E94830A79
:1016100008E110E05C814B813A812981DA01C9013E
:10162000002E04C0B695A795979587950A94D2F792
:1016300029833A834B835C830E94830A08501109F3
:1016400029813A814B815C81083F8FEF180731F780
:10165000FF2029F0E8E0FE1621F08FEF03C085E9B6
:1016600001C087E80E94830A10E00E948A0AF601FE
:10167000828787FF04C01F3F11F01F5FF6CF0F90D6
:101680000F900F900F90DF91CF911F910F91FF90CE
:10169000DF90CF9008950F931F93CF93DF93EC01CA
:1016A0000E94F2198B010E948A0A8A878F3F49F4AF
:1016B0000E94F219601B710B6D327140A0F38FE034
:1016C00003C08E3F39F08DE08D83CE010E948D0ADC
:1016D00080E001C081E0DF91CF911F910F910895CB
:1016E000CF92DF92EF92FF920F931F93CF93DF93EE
:1016F000EC0169010115110509F462C0C801820FEE
:10170000931F8130924008F05DC08E81882371F074
:1017100088819981AA81BB81481759076A077B078D
:1017200029F48F819885C816D90610F54883598306
:101730006A837B838B85833039F039E0440F551FF2
:10174000661F771F3A95D1F79A01AB0161E1CE018F
:101750000E94E90A882319F083E08D8333C0CE010B
:101760000E944B0B882371F118861F8281E08E83C3
:101770008F8198858C159D0540F40E948A0A8F817F
:101780009885019698878F83F3CF6701E00EF11E4D
:10179000CE14DF0431F00E948A0AF60181936F01B2
:1017A000F7CF8F819885800F911F98878F83298528
:1017B000222319F08115924018F0CE010E94B40A3C
:1017C00081E004C0CE010E948D0A80E0DF91CF91BC
:1017D0001F910F91FF90EF90DF90CF900895EF92BF
:1017E000FF920F931F93790100E012E020E030E0B8
:1017F0000E94700B1F910F91FF90EF900895CF9270
:10180000DF92EF92FF920F931F93CF93DF9300D05D
:10181000CDB7DEB78C01862F49835A830E94830A95
:101820004981C42E5A81D52EE12CF12CF6018191EB
:101830006F010E94830AFFEFEF1AFF0AE11482E0B2
:10184000F806A1F78FEF0E94830A8FEF0E94830AA8
:101850000E948A0AF80182878F71853039F081E110
:101860008583C8010E948D0A80E001C081E00F904D
:101870000F90DF91CF911F910F91FF90EF90DF902C
:10188000CF9008950F931F93CF93DF93EC018901BD
:10189000411551056105710511F482E132C08B8556
:1018A000833039F089E0440F551F661F771F8A95F2
:1018B000D1F79A01AB0168E1CE010E94E90A8823C1
:1018C00011F084E01EC0A8016EEFCE010E94FF0B54
:1018D0008823C1F068E572E0CE010E94CE0A811132
:1018E00002C085E10EC020E030E0A9016DE0CE012C
:1018F0000E94E90A811104C00E948A0A882339F0F3
:1019000084E18D83CE010E948D0A80E004C0CE0167
:101910000E948D0A81E0DF91CF911F910F91089570
:1019200080E580935006109251060895CF93DF937F
:10193000EC019C012A5F3F4F41E050E060E070E025
:101940008B8D9C8D0E940F128823A1F04F89588D9A
:10195000698D7A8D452B462B472B71F44E815F8123
:10196000688579854F8B588F698F7A8F8C818068D5
:101970008C8302C080E001C081E0DF91CF910895A7
:10198000CF93DF93EC01462F6E857F8588899989F7
:101990000E94AF10882341F08A8920E2829FC00113
:1019A0001124855A994F02C080E090E0DF91CF91D9
:1019B00008952F923F924F925F926F927F928F92F3
:1019C0009F92AF92BF92CF92DF92EF92FF920F93CE
:1019D0001F93CF93DF93EC016B015A018D8181112D
:1019E00003C08FEF9FEFDAC08C8180FFFACF4B8965
:1019F0005C896D897E898A859B85AC85BD8525013D
:101A0000612C712C8A019B01081B190B2A0B3B0BC3
:101A1000041515052605370518F45A01A81AB90A40
:101A200025011E0126E0220E311C4114510409F447
:101A30007BC04A855B856C857D854A0181E0982263
:101A4000ED818A019B01F9E0369527951795079559
:101A5000FA95D1F78B8D9C8DE23051F4FC01628DAB
:101A6000738D848D958D600F711F821F931F3EC0F3
:101A7000FC0174807A94702281149104C9F471106D
:101A800017C0452B462B472B49F48F89988DA98D7C
:101A9000BA8D8E839F83A887B9870AC04E815F81E4
:101AA0006885798591010E94EA10882309F499CF0D
:101AB000EB8DFC8D6E817F818885998562507109DF
:101AC00081099109058404C0660F771F881F991F3B
:101AD0000A94D2F70685178520893189600F711F16
:101AE000821F931F670D711D811D911D20E032E043
:101AF0002819390932012415350508F439012C81DA
:101B000026FD04C06114F2E07F06A1F500910601F4
:101B100010910701209108013091090160177107A8
:101B20008207930719F426C0C50138C076018301E6
:101B30009401AB01BC018091590690915A060E9414
:101B4000700B882309F44DCFC60CD71C04C0E81BCA
:101B5000F90BCE0EDF1E8A859B85AC85BD85860D73
:101B6000971DA11DB11D8A879B87AC87BD8746182D
:101B700057085BCF40E00E94AF10882309F431CFB3
:101B8000C401855A994FD6019C01260D371DFC01D1
:101B9000E217F307E1F241914D93FACFDF91CF9134
:101BA0001F910F91FF90EF90DF90CF90BF90AF907B
:101BB0009F908F907F906F905F904F903F902F906D
:101BC00008954F925F926F927F92AF92BF92CF92A1
:101BD000DF92EF92FF920F931F93CF93DF93EC016D
:101BE0006A017B012D81222309F457C08B899C89CE
:101BF000AD89BE8984179507A607B70708F44DC0BD
:101C00004EC08A859B85AC85BD85EB8DFC8DE585B9
:101C1000F0E03996AC01BD014150510961097109EB
:101C20000E2E04C076956795579547950A94D2F77E
:101C300097018601015011092109310904C0369527
:101C4000279517950795EA95D2F7041715072607E4
:101C50003707B0F58F89988DA98DBA8D8E839F83B4
:101C6000A887B987280139015E0186E0A80EB11C5A
:101C7000411451046104710461F14E815F816885F2
:101C8000798595018B8D9C8D0E94EA1091E0491A0F
:101C90005108610871088111EBCF80E01FC022302C
:101CA000C1F0C114D104E104F10409F0AACF1E82ED
:101CB0001F82188619861A861B861C861D860DC0F3
:101CC000892B8A2B8B2B31F2041B150B260B370B20
:101CD000C9CFCA86DB86EC86FD8681E0DF91CF9195
:101CE0001F910F91FF90EF90DF90CF90BF90AF903A
:101CF0007F906F905F904F9008950F931F93CF93B5
:101D0000DF93EC018D818823C9F18C8187FF30C07E
:101D100061E0CE010E94C00C8C01009779F18D81A9
:101D2000823048F44B895C896D897E89F801448F43
:101D3000558F668F778F4F89588D698D7A8DF80111
:101D4000538F428F758B648BE0915206F09153064E
:101D5000309759F0B8016A5E7F4FC80148960995DF
:101D6000F801808D918D938B828B8C818F778C8302
:101D7000DF91CF911F910F910C94741080E0DF914F
:101D8000CF911F910F9108952F923F924F925F92A2
:101D90006F927F928F929F92AF92BF92CF92DF927B
:101DA000EF92FF920F931F93CF93DF9300D000D059
:101DB0001F92CDB7DEB78C017B013A01DC0115968D
:101DC0008C9115978130C9F414968C9181FF15C0C0
:101DD00082FF1BC0F8014389548965897689828511
:101DE0009385A485B58584179507A607B70769F07D
:101DF000C8010E94E10D811108C081E090E0F80166
:101E00009383828380E090E046C1630180C0D80163
:101E10005B968D919C915C97FC01F481F150B5012A
:101E2000A40129E076956795579547952A95D1F7AE
:101E3000F423FD8321E09222FF2309F474C080E0A3
:101E400092E08819990956018C159D0508F45C01EA
:101E5000D8015B96ED91FC915C9716962D903D9084
:101E60004D905C901997B2E02B1A31084108510847
:101E7000058404C0220C331C441C551C0A94D2F760
:101E800086859785A089B189280E391E4A1E5B1E5A
:101E9000ED812E0E311C411C511CA114F2E0BF0635
:101EA00009F088C08091060190910701A091080176
:101EB000B091090182159305A405B50559F48FEF7A
:101EC0009FEFDC018093060190930701A093080126
:101ED000B09309019701B201A10180915906909137
:101EE0005A060E94420C882309F487CF9EEFF91A04
:101EF000CA18DB08F80182859385A485B5858A0D0B
:101F00009B1DA11DB11D82879387A487B587D8012A
:101F10001A968D909D90AD90BC901D97C114D104E0
:101F200009F075CF8AC08114910409F088CF169604
:101F30004D915D916D917C91199741155105610508
:101F4000710559F457968D919D910D90BC91A02DDE
:101F50000097A105B10541F521C09E012F5F3F4FBC
:101F60000E94EA10882309F44ECF89819A81AB81BF
:101F7000BC81F801238D348DF9012789203129F4A2
:101F800048EF5FEF60E070E004C048EF5FEF6FEF95
:101F90007FE084179507A607B70730F0C8010E94B5
:101FA000960C81114CCF29CFF80186839783A087A7
:101FB000B18745CF8114910429F5D8011A964D9126
:101FC0005D916D917C911D9753968D919D910D9092
:101FD000BC91A02D481759076A077B0798F00E940B
:101FE0007410882309F409CF20920601309207016A
:101FF00040920801509209018091580681608093B7
:10200000580608C041E0C201B1010E94AF10882308
:1020100009F4F3CEC401855A994FD7019C012A0DCA
:102020003B1DFC01E217F30719F04D914193FACFE4
:10203000E81BF90BEE0EFF1E5BCF53968D919D9121
:102040000D90BC91A02DF801248188159905AA0551
:10205000BB0538F4838A948AA58AB68A20682483CB
:102060000CC08091520690915306892B31F0611477
:10207000710419F02068F8012483D80114968C911A
:1020800083FD02C0C30107C0C8010E947D0E8823E2
:1020900009F4B3CEF7CF0F900F900F900F900F90E1
:1020A000DF91CF911F910F91FF90EF90DF90CF9034
:1020B000BF90AF909F908F907F906F905F904F9068
:1020C0003F902F900895CF93DF931F92CDB7DEB747
:1020D000698341E050E0BE016F5F7F4F0E94C40EF4
:1020E0000F90DF91CF91089580915806882399F140
:1020F000409106015091070160910801709109011A
:102100002BE536E08091590690915A060E94420CC8
:10211000882319F140915406509155066091560656
:1021200070915706411551056105710591F02BE538
:1021300036E08091590690915A060E94420C8823FD
:1021400061F01092540610925506109256061092A5
:1021500057061092580681E0089580E00895CF92C6
:10216000DF92EF92FF92CF936B017C01C42F80919D
:10217000060190910701A0910801B09109018C1509
:102180009D05AE05BF05D1F00E947410811102C0FB
:1021900080E01AC02BE536E0B701A6018091590610
:1021A00090915A060E94EF0B882391F3C09206018A
:1021B000D0920701E0920801F0920901809158063F
:1021C0008C2B8093580681E0CF91FF90EF90DF90A9
:1021D000CF9008958F929F92AF92BF92CF92DF924D
:1021E000EF92FF920F931F93CF93DF938C016A01BD
:1021F0007B01E901FC0181859285A385B485019667
:10220000A11DB11D84179507A607B70710F480E03C
:1022100058C0F80143895489658976898789803156
:1022200029F4BB27AF2D9E2D8D2D09C0D701C601E6
:1022300027E0B695A795979587952A95D1F74C01F4
:102240005D01840E951EA61EB71EC501B4018090C7
:10225000060190900701A0900801B090090168154F
:1022600079058A059B0589F4F8018789803199F4FD
:10227000DD24EE24FF24F601EE0FFF1FE55AF94F8F
:1022800080819181A0E0B0E017C040E00E94AF10D3
:102290008111EACFBCCFE894C7F8DD24EE24FF24F7
:1022A000F601EE0FFF1FEE0FFF1FE55AF94F808179
:1022B0009181A281B381BF7088839983AA83BB83F4
:1022C00081E0DF91CF911F910F91FF90EF90DF9010
:1022D000CF90BF90AF909F908F9008954F925F9254
:1022E0006F927F928F929F92AF92BF92CF92DF9226
:1022F000EF92FF920F931F93CF93DF93EC016A014C
:102300007B0128013901423051056105710508F44E
:1023100074C049855A856B857C854F5F5F4F6F4FD1
:102320007F4F4C155D056E057F0508F466C08B88F0
:102330009C88AD88BE888F89803129F477276F2DDE
:102340005E2D4D2D09C0B701A601E7E07695679592
:1023500057954795EA95D1F7840E951EA61EB71E90
:1023600040910601509107016091080170910901A7
:1023700084169506A606B70671F48F89803199F404
:10238000DD24EE24FF24F601EE0FFF1FE55AF94F7E
:102390005182408218C040E0C501B4010E94AF10D4
:1023A0008111EBCF2AC0E894C7F8DD24EE24FF2486
:1023B000F601EE0FFF1FEE0FFF1FE55AF94F4082A7
:1023C00051826282738280915806816080935806A0
:1023D0008A89823080F08D819E81AF81B885880D99
:1023E000991DAA1DBB1D8093540690935506A0937A
:1023F0005606B093570681E001C080E0DF91CF918F
:102400001F910F91FF90EF90DF90CF90BF90AF9012
:102410009F908F907F906F905F904F9008952F9234
:102420003F924F925F926F927F929F92AF92BF9234
:10243000CF92DF92EF92FF920F931F93CF93DF9390
:10244000CDB7DEB760970FB6F894DEBF0FBECDBF35
:102450005C014D875E876F87788B1901D9014D909C
:102460005D906D907C90411451046104710431F0D1
:10247000BFEF4B1A5B0A6B0A7B0A10C0FC0140805D
:10248000518062807380992493940D851E852F85D9
:102490003889013011052105310509F0912CD5014C
:1024A00019962D913D914D915C911C972F5F3F4F57
:1024B0004F4F5F4F29873A874B875C8773016201D3
:1024C0001D821E821F821886F50181859285A38553
:1024D000B4850D811E812F813885081719072A07B9
:1024E0003B0708F056C029853A854B855C852C153D
:1024F0003D054E055F0550F4A2E0CA2ED12CE12C1B
:10250000F12CB2E04B2E512C612C712C9E012F5FCF
:102510003F4FB701A601C5010E94EA108823C9F107
:1025200049815A816B817C81D701C6010196A11D29
:10253000B11D452B462B472B19F02C013D010FC037
:10254000AC01BD0144195509660977090D851E8541
:102550002F853889401751076207730779F02D815D
:102560003E814F8158852F5F3F4F4F4F5F4F2D83E7
:102570003E834F8358876C017D01A6CF0FEF1FEF7D
:102580002FEF3FE0B701A601C5010E946E11811136
:1025900018C080E041C0D701C6010197A109B10967
:1025A0008D839E83AF83B88797018601AC01BD01FF
:1025B000C5010E946E11882361F3CD80DE80EF801B
:1025C000F8844C145D046E047F0428F3D1014D910E
:1025D0005D916D917C91411551056105710599F4ED
:1025E000F10140825182628273829920A1F0FFEF53
:1025F0004F1A5F0A6F0A7F0AD5014D925D926D9264
:102600007C92139708C093018201C5010E946E114C
:102610008111E6CFBECF81E060960FB6F894DEBFA1
:102620000FBECDBFDF91CF911F910F91FF90EF9023
:10263000DF90CF90BF90AF909F907F906F905F9012
:102640004F903F902F900895DC01ED91FC91019007
:10265000F081E02D099420E530E0FC0131832083F6
:1026600020E2228786EA98E00C940117AF92BF928D
:10267000CF92DF92EF92FF920F931F93CF93DF934E
:102680007C01EB015A016901FC016081718186EADC
:1026900098E00E94151786EA98E00E948E17811133
:1026A0002FC0F7016081718186EA98E00E941517BA
:1026B0006D2F70E086EA98E00E942413BE01772710
:1026C00086EA98E00E942413B5016C0D7D1DA801D7
:1026D00086EA98E00E94951686EA98E00E948E1796
:1026E00064E170E080E090E0DF91CF911F910F9165
:1026F000FF90EF90DF90CF90BF90AF900C94211A95
:10270000DF91CF911F910F91FF90EF90DF90CF90CD
:10271000BF90AF9008956F927F928F929F92AF92E9
:10272000BF92CF92DF92EF92FF920F931F93CF93BE
:10273000DF934C016B013A017901A12CB12C1E14DD
:102740001F042CF5F4012285EE2D4F2DFFE1EF162D
:10275000F10414F0EEE140E030E0C601B9010E945E
:102760002620281B390BCE2FD42F2C173D070CF415
:10277000E9018E019501A301B601C4010E9436133F
:10278000EC1AFD0AAC0EBD1ECC0EDD1ED8CFDF91BB
:10279000CF911F910F91FF90EF90DF90CF90BF905E
:1027A000AF909F908F907F906F900895CF93DF931D
:1027B00000D000D0CDB7DEB729833A834B835C834A
:1027C00024E030E0AE014F5F5F4F0E948B130F900B
:1027D0000F900F900F90DF91CF9108950C948B1371
:1027E000AF92BF92CF92DF92EF92FF920F931F931F
:1027F000CF93DF93EC017B016A01590168817981F4
:1028000086EA98E00E94151786EA98E00E948E17E3
:10281000811136C06881798186EA98E00E94151797
:102820006F2D70E086EA98E00E942413B7017727A5
:1028300086EA98E00E94241386EA98E00E948E17A8
:1028400081111EC068817981A80186EA98E00E9402
:102850008B17E601CA0DDB1D7E0186EA98E00E9417
:102860006A161816190664F4CE018E199F0980178E
:10287000910734F486EA98E00E9472168993EDCFAE
:10288000DF91CF911F910F91FF90EF90DF90CF904C
:10289000BF90AF9008956F927F928F929F92AF9268
:1028A000BF92CF92DF92EF92FF920F931F93CF933D
:1028B000DF933C015B014A01E901C12CD12C1C16BC
:1028C0001D06ACF47E01C132D1051CF080E2E82E79
:1028D000F12C87019601A401B501C3010E94F013F8
:1028E000AE0CBF1CCE0CDF1CCE19DF09E8CFDF9188
:1028F000CF911F910F91FF90EF90DF90CF90BF90FD
:10290000AF909F908F907F906F900895CF93DF93BB
:10291000EC01AC014E5F5F4F24E030E00E944B14AD
:102920006A817B818C819D81DF91CF9108950C9488
:102930004B148F929F92AF92BF92CF92DF92EF9201
:10294000FF926A017B010E94F2194B015C01C60EE5
:10295000D71EE81EF91E0E94F219681579058A052E
:102960009B0528F0C616D706E806F906A0F7FF90E3
:10297000EF90DF90CF90BF90AF909F908F90089591
:1029800021E00C9499140C94F219CF93DF93EC018D
:102990004E875F87688B798B1A8A1B8A1C8A1D8AEF
:1029A0004E815F81688579854A875B876C877D87E3
:1029B0000E94F2196E837F8388879987DF91CF9178
:1029C0000895BF92CF92DF92EF92FF920F931F93E1
:1029D000CF93DF938C01B62E0E94F2196B017C011C
:1029E000E801CE5BDF4F62E475E0888199810E9447
:1029F000621D4AE050E06B2D888199810E94751E0E
:102A000069E475E0888199810E94621D2AE030E0C6
:102A1000B701A601888199810E94681E6EEB72E061
:102A2000888199810E94621DF80186819781A08525
:102A3000B185B701A601481B590B6A0B7B0B2AE035
:102A400030E0888199810E94681E6EEB72E0888177
:102A500099810E94621DF8014681578160857185C8
:102A600082859385A485B585481B590B6A0B7B0B22
:102A70002AE030E088819981DF91CF911F910F91F9
:102A8000FF90EF90DF90CF90BF900C94681E8E5B0C
:102A90009F4F6DE475E0FC01808191810C94811D54
:102AA000CF93DF93EC010E94F2196E837F838887B6
:102AB0009987DF91CF910895CF92DF92EF92FF92A5
:102AC000CF93DF93EC0161111EC00E94F219CA80FE
:102AD000DB80EC80FD806C197D098E099F096436CE
:102AE00071058105910578F424E6C22ED12CE12CE4
:102AF000F12CC61AD70AE80AF90A21E0B701A601A3
:102B0000CE010E9499140E94F2196A837B838C8300
:102B10009D8381E0DF91CF91FF90EF90DF90CF9088
:102B200008950895FC01EC5BFF4F10821182128220
:102B30001382FC0112821382148215824115510501
:102B40006105710511F00C94C0140895FB01BA01E0
:102B5000A9018E5B9F4FDC01ED93FC9326E0CF0132
:102B60000C94FF1B8E5B9F4FDC018D919C91DC01CF
:102B7000ED91FC910680F781E02D099508958E5B1B
:102B80009F4FDC018D919C91DC01ED91FC910480C3
:102B9000F581E02D09950895FF920F931F93CF9330
:102BA000DF93EC01F62E0E94F2196A837B838C83FB
:102BB0009D838E010E5B1F4F64E575E0F8018081F7
:102BC00091810E94621D4AE050E06F2DF8018081E2
:102BD00091810E94751E6BE575E0F80180819181FD
:102BE0000E94621D42E350E060E070E0CE01DF91A0
:102BF000CF911F910F91FF900C94C0141F93CF930E
:102C0000DF93EC01162F8E89882311F1CE010E94EB
:102C1000BF15811102C085E61CC0CE010E94BF1500
:102C20008823C9F3CE010E94B215883689F048F492
:102C3000883569F0833689F7612FCE010E94CC1563
:102C400007C0813729F0863741F786E702C01E8A20
:102C500083E6DF91CF911F9108951F93CF93DF9368
:102C6000EC01142F611105C01E8BDF91CF911F91D4
:102C7000089581E08E8B60E0CE010E94FE158336C0
:102C800099F341E050E060E070E0CE010E94C01492
:102C9000F2CF1092640810926508109266081092A4
:102CA0006708109268081092690810926A081092DA
:102CB0006B0810926C0810926D0810926E081092BA
:102CC0006F0810927008109271081092720810929A
:102CD000730808958091D60890E02091D708821B50
:102CE000910908952091D7088091D608281750F4AB
:102CF000E22FF0E0E852F74F808190E02F5F2093C1
:102D0000D70808958FEF9FEF0895E091D70880913D
:102D1000D608E81730F4F0E0E852F74F808190E0F1
:102D200008958FEF9FEF08950895CF92DF92EF926D
:102D3000FF920F931F93CF93DF937C01CB018A0106
:102D40002091B208222389F0EB016B01C40ED51E3D
:102D5000CC15DD0569F06991D701ED91FC910190E9
:102D6000F081E02DC7010995F3CF642F0E9452181E
:102D7000C801DF91CF911F910F91FF90EF90DF90ED
:102D8000CF900895CF93DF931F92CDB7DEB76983BD
:102D90002091B2082223D1F02091B308203240F0D4
:102DA00021E030E0FC013383228380E090E015C015
:102DB0008091B408E82FF0E0EB54F74F99819083AD
:102DC0008F5F8093B4088093B30805C061E0CE01A3
:102DD00001960E94521881E090E00F90DF91CF9110
:102DE0000895FC011382128248EE53E060E070E027
:102DF000448355836683778380EB95E0918380835A
:102E000008951092D7081092D6081092B408109224
:102E1000B3080C94951781E08093B2086093D508AD
:102E20001092B4081092B30808950C940B170F93E6
:102E3000062F21E04091B30865EB78E08091D5083A
:102E40000E94FB171092B4081092B3081092B208B7
:102E50000F9108958F929F92AF92BF92CF92DF927F
:102E6000EF92FF920F931F93CF93DF93EC01F62E17
:102E7000D42E48015901EE2019F10E940B171E2D86
:102E8000143008F013E01150B8F0E881F98128E01F
:102E9000129FB0011124A501940104C056954795D5
:102EA000379527956A95D2F7CA01B9010190F0814B
:102EB000E02DCE010995E7CF60E0CE010E94171703
:102EC0004D2D413208F040E22C2D68ED78E08F2D39
:102ED0000E94B3171092D7088093D608DF91CF9144
:102EE0001F910F91FF90EF90DF90CF90BF90AF9028
:102EF0009F908F900895CF92EF920F931F93C22EC1
:102F0000E12C00E010E098010E942A171F910F9118
:102F1000EF90CF90089521E00C947B1761E00C9422
:102F2000171786EA98E00C94F1161092650981E073
:102F3000809363091092620961E082E10E94E61ABF
:102F400061E083E10E94E61AE9EBF0E080818E7F88
:102F5000808380818D7F808388E48093B80085E4BE
:102F60008093BC000895413208F043C090916509F8
:102F70009111FCCF91E090936509209363092FEFA5
:102F80002093F80810923D09240F20933C09909358
:102F9000640990916409880F892B8093640980915A
:102FA0006209813061F41092620980916409809312
:102FB000BB008091BC0083FDF8CF85EC01C085EE9D
:102FC0008093BC00809165098130E1F380913D09D7
:102FD000841710F440913D092EE339E0FB01D9013B
:102FE0008A2F821B841718F48D918193F9CF842F37
:102FF000089580E008950F93413208F04AC09091FF
:1030000065099111FCCF92E09093650900936309E3
:103010009FEF9093F80810923D0940933C09FB0103
:103020006EE379E0DB019A2F961B941718F49191C7
:103030009D93F9CF1092640990916409880F892BB0
:103040008093640980916209813061F41092620971
:10305000809164098093BB008091BC0083FDF8CF10
:1030600085EC01C085EE8093BC00222321F0809185
:1030700065098230E1F38091F8088F3F61F080911B
:10308000F808803251F08091F808803341F483E0F1
:1030900007C081E005C080E003C082E001C084E099
:1030A0000F910895613298F420916509243089F4D4
:1030B00060931A09FC018CE199E0DC012A2F281B9E
:1030C000261718F421912D93F9CF80E0089581E01F
:1030D000089582E0089585ED8093BC008091BC0046
:1030E00084FDFCCF10926509089585EC8093BC00A7
:1030F0001092650908951F920F920FB60F92112436
:103100002F933F934F935F936F937F938F939F93EF
:10311000AF93BF93EF93FF938091B900887F803680
:1031200009F49EC078F5883209F45DC090F48031CE
:1031300009F456C038F4882309F4F5C0883009F43E
:103140004FC0F5C0883109F44EC0803209F45FC029
:10315000EEC0803409F46AC058F4803309F457C0D3
:10316000883309F0E4C08093F8080E947518DFC026
:10317000803509F44FC0883509F45DC0883409F002
:10318000D6C0D3C0883909F4C4C0A8F4883709F47C
:1031900067C038F4883609F463C0803709F460C02A
:1031A000C6C0883809F4B5C0803909F45FC08038DA
:1031B00009F0BDC05BC0803B09F483C038F4803A9D
:1031C00009F466C0883A09F47CC0B1C0803C09F4B7
:1031D000A4C0883C09F4A1C0883B09F487C0A7C0FB
:1031E0008091640910C090913D0980913C09981725
:1031F00070F5E0913D0981E08E0F80933D09F0E08C
:10320000E25CF64F80818093BB0085EC83C08093A5
:10321000F8088BC0E0913D0981E08E0F80933D0955
:103220008091BB00F0E0E25CF64F808390913D0915
:1032300080913C096BC0E0913D0981E08E0F809345
:103240003D098091BB00F0E0E25CF64F8083809105
:10325000630981116AC081E08093620984EA5EC0DB
:1032600083E0809365091092F908CFCF8091F90827
:10327000803208F04EC0E091F90881E08E0F809313
:10328000F9088091BB00F0E0E650F74F8083BDCF96
:103290000E9475188091F908803230F4E091F908A5
:1032A000F0E0E650F74F10826091F90870E0E0918D
:1032B0005E09F0915F098AEF98E009951092F9088C
:1032C00036C084E08093650910921B0910921A0998
:1032D000E0916009F0916109099580911A098111C5
:1032E00005C081E080931A0910921C09E0911B0926
:1032F00081E08E0F80931B09F0E0E45EF64F808141
:103300008093BB0090911B0980911A09981708F4CB
:103310007CCF85E88093BC000AC085EC8093BC001C
:103320001092650904C01092F8080E946B18FF9172
:10333000EF91BF91AF919F918F917F916F915F912D
:103340004F913F912F910F900FBE0F901F901895A6
:103350001F920F920FB60F9211242F933F938F93CA
:103360009F93AF93BF938091670990916809A09153
:103370006909B0916A093091660923E0230F2D375E
:1033800020F40196A11DB11D05C026E8230F029669
:10339000A11DB11D20936609809367099093680968
:1033A000A0936909B0936A0980916B0990916C09A7
:1033B000A0916D09B0916E090196A11DB11D809378
:1033C0006B0990936C09A0936D09B0936E09BF913E
:1033D000AF919F918F913F912F910F900FBE0F90C2
:1033E0001F9018952FB7F89460916709709168093C
:1033F0008091690990916A092FBF08953FB7F894A9
:1034000080916B0990916C09A0916D09B0916E0942
:1034100026B5A89B05C02F3F19F00196A11DB11D2F
:103420003FBF6627782F892F9A2F620F711D811D4C
:10343000911D42E0660F771F881F991F4A95D1F7AB
:103440000895CF92DF92EF92FF92CF93DF936B01BB
:103450007C010E94FE19EB01C114D104E104F104C6
:1034600089F00E9419200E94FE196C1B7D0B683E9A
:10347000734090F381E0C81AD108E108F108C851FF
:10348000DC4FEACFDF91CF91FF90EF90DF90CF90AC
:103490000895789484B5826084BD84B5816084BDCC
:1034A00085B5826085BD85B5816085BDEEE6F0E0BD
:1034B000808181608083E1E8F0E010828081826019
:1034C0008083808181608083E0E8F0E0808181609A
:1034D0008083E1EBF0E0808184608083E0EBF0E0CA
:1034E000808181608083EAE7F0E08081846080836E
:1034F0008081826080838081816080838081806818
:1035000080831092C1000895833081F028F48130C7
:1035100099F08230A1F008958730A9F08830B9F091
:103520008430D1F4809180008F7D03C08091800031
:103530008F7780938000089584B58F7702C084B51B
:103540008F7D84BD08958091B0008F7703C08091F6
:10355000B0008F7D8093B0000895CF93DF9390E00B
:10356000FC01E657FF4F2491FC01E256FF4F849186
:10357000882349F190E0880F991FFC01E454FF4F24
:10358000A591B4918E549F4FFC01C591D4919FB7E2
:10359000611108C0F8948C91209582238C938881C6
:1035A00082230AC0623051F4F8948C91322F309506
:1035B00083238C938881822B888304C0F8948C9118
:1035C000822B8C939FBFDF91CF9108950F931F9310
:1035D000CF93DF931F92CDB7DEB7282F30E0F901EC
:1035E000EA58FF4F8491F901E657FF4F1491F90112
:1035F000E256FF4F04910023C9F0882321F069832C
:103600000E94841A6981E02FF0E0EE0FFF1FEE5454
:10361000FF4FA591B4919FB7F8948C91611103C0AD
:103620001095812301C0812B8C939FBF0F90DF9158
:10363000CF911F910F910895FC01818D228D90E013
:10364000805C9F4F821B91098F7399270895FC011D
:10365000918D828D981731F0828DE80FF11D858D47
:1036600090E008958FEF9FEF0895FC01918D828D7A
:10367000981761F0828DDF01A80FB11D5D968C91C6
:10368000928D9F5F9F73928F90E008958FEF9FEFD1
:10369000089589EB9CE1892B49F080E090E0892B2B
:1036A00029F00E94B91C81110C9400000895FC01BE
:1036B000848DDF01A80FB11DA35ABF4F2C91848DBB
:1036C00090E001968F739927848FA689B7892C93F0
:1036D000A089B1898C9180648C93938D848D98138B
:1036E00006C00288F389E02D80818F7D8083089554
:1036F000CF93DF93EC01888D8823C9F0EA89FB8999
:10370000808185FD05C0A889B9898C9186FD0FC08F
:103710000FB607FCF5CF808185FFF2CFA889B98964
:103720008C9185FFEDCFCE010E94571BE7CFDF9133
:10373000CF910895CF92DF92FF920F931F93CF9373
:10374000DF931F92CDB7DEB76C0181E0D6015896AA
:103750008C9358975B969C915B975C968C915C9749
:10376000981307C05096ED91FC915197808185FD8B
:103770002EC0F601038D10E00F5F1F4F0F7311274E
:10378000F02EF601848DF81211C00FB607FCF9CFA8
:10379000D6015096ED91FC915197808185FFF1CF34
:1037A000C60169830E94571B6981EBCF838DE80FA7
:1037B000F11DE35AFF4F6083D6015B960C935B9734
:1037C0005296ED91FC915397808180620CC0D60196
:1037D0005696ED91FC91579760835096ED91FC9130
:1037E000519780818064808381E090E00F90DF9129
:1037F000CF911F910F91FF90DF90CF900895BF92CE
:10380000CF92DF92EF92FF92CF93DF93EC016A01A8
:103810007B01B22EE889F98982E08083411581EE2F
:10382000580761057105A1F060E079E08DE390E053
:10383000A70196010E943A202150310941095109FE
:103840005695479537952795211580E1380798F0CB
:10385000E889F989108260E874E88EE190E0A701B8
:1038600096010E943A20215031094109510956958B
:10387000479537952795EC85FD853083EE85FF8547
:103880002083188EEC89FD89B082EA89FB898081CA
:1038900080618083EA89FB89808188608083EA89EE
:1038A000FB89808180688083EA89FB8980818F7DA4
:1038B0008083DF91CF91FF90EF90DF90CF90BF900A
:1038C00008951F920F920FB60F9211242F938F938A
:1038D0009F93EF93FF93E0917F09F091800980819E
:1038E000E0918509F091860982FD12C09081809156
:1038F00088098F5F8F7320918909821751F0E091B9
:103900008809F0E0E159F64F958F8093880901C04E
:103910008081FF91EF919F918F912F910F900FBE1A
:103920000F901F9018951F920F920FB60F921124AF
:103930002F933F934F935F936F937F938F939F93B7
:10394000AF93BF93EF93FF938FE699E00E94571BCD
:10395000FF91EF91BF91AF919F918F917F916F9167
:103960005F914F913F912F910F900FBE0F901F903D
:1039700018958FE699E00E941C1B21E0892B09F421
:1039800020E0822F0895109272091092710988EE3A
:1039900093E0A0E0B0E08093730990937409A09342
:1039A0007509B093760980EC95E090937009809347
:1039B0006F0985EC90E090937C0980937B0984ECFF
:1039C00090E090937E0980937D0980EC90E0909345
:1039D000800980937F0981EC90E090938209809325
:1039E000810982EC90E0909384098093830986ECAE
:1039F00090E090938609809385091092880910922F
:103A0000890910928A0910928B09089508950E94DD
:103A1000491A0E94061D0E943003C9E4DBE10E949E
:103A2000BC082097E1F30E94491BF9CFCF92DF92A7
:103A3000EF92FF920F931F93CF93DF937C016A0164
:103A4000EB0100E010E00C151D0571F06991D70144
:103A5000ED91FC910190F081E02DC7010995892B32
:103A600019F00F5F1F4FEFCFC801DF91CF911F916A
:103A70000F91FF90EF90DF90CF9008956115710541
:103A800081F0DB010D900020E9F7AD0141505109B3
:103A9000461B570BDC01ED91FC910280F381E02D78
:103AA000099480E090E00895DC01ED91FC91DB0148
:103AB00014964D915C9115976D917C910280F381E4
:103AC000E02D09940C943E1DDC01ED91FC910190D8
:103AD000F081E02D099461E675E00C943E1D0F9392
:103AE0001F93CF93DF93EC010E94541D8C01CE01F4
:103AF0000E946B1D800F911FDF91CF911F910F913D
:103B000008950F931F93CF93DF93EC010E943E1D06
:103B10008C01CE010E946B1D800F911FDF91CF9110
:103B20001F910F9108950F931F93CF93DF93EC0193
:103B30000E94641D8C01CE010E946B1D800F911F9D
:103B4000DF91CF911F910F9108958F929F92AF9225
:103B5000BF92CF92DF92EF92FF920F931F93CF937A
:103B6000DF93CDB7DEB7A1970FB6F894DEBF0FBED7
:103B7000CDBF7C01C42EE52FCB01D22E19A221E0AE
:103B80002D1510F02AE0D22E8E010F5D1F4F8D2CC7
:103B9000912CA12CB12C6C2D7E2FA50194010E949B
:103BA0003A208C2DD29E80191124015011098A309F
:103BB00014F4805D01C0895CF80180832115310512
:103BC0004105510521F0C22EE32FCA01E4CFB8010F
:103BD000C7010E943E1DA1960FB6F894DEBF0FBE2E
:103BE000CDBFDF91CF911F910F91FF90EF90DF90AC
:103BF000CF90BF90AF909F908F900895CF92DF921B
:103C0000EF92FF920F931F93CF93DF93EC016A0122
:103C10007B012115310579F4E881F9810190F0816A
:103C2000E02D642FDF91CF911F910F91FF90EF90C6
:103C3000DF90CF9009942A303105E9F477FF1AC05C
:103C40006DE20E94641D8C0144275527BA014C196E
:103C50005D096E097F092AE0CE010E94A51D800F33
:103C6000911FDF91CF911F910F91FF90EF90DF9007
:103C7000CF9008952AE0B701A601CE01DF91CF9140
:103C80001F910F91FF90EF90DF90CF900C94A51DA6
:103C90009A01AB01662757FD6095762F0C94FE1DA7
:103CA0000F931F93CF93DF93EC019A01AB0166272B
:103CB00057FD6095762F0E94FE1D8C01CE010E945B
:103CC0006B1D800F911FDF91CF911F910F91089570
:103CD0002115310541F4DC01ED91FC910190F08159
:103CE000E02D642F09940C94A51D9A01462F50E0F5
:103CF00060E070E00C94681E0F931F93CF93DF93E6
:103D0000EC019A01AB0160E070E00E94681E8C013A
:103D1000CE010E946B1D800F911FDF91CF911F91EB
:103D20000F9108950F931F93CF93DF93EC010E949F
:103D3000681E8C01CE010E946B1D800F911FDF91C8
:103D4000CF911F910F910895FC01808191810C9476
:103D5000FA20CF93DF93EC0188819981009711F0CD
:103D60000E94FA20198218821D821C821B821A82EC
:103D7000DF91CF9108950F931F93CF93DF93EC01C1
:103D80008B016F5F7F4F888199810E948921009705
:103D900031F0998388831B830A8381E001C080E02E
:103DA000DF91CF911F910F910895CF93DF93EC0195
:103DB00088819981892B29F08A819B8186179707B1
:103DC00060F4CE010E94BB1E882341F08C819D814E
:103DD000892B19F4E881F981108281E0DF91CF917C
:103DE0000895EF92FF920F931F93CF93DF93EC010F
:103DF0007B018A01BA010E94D51E811104C0CE0147
:103E00000E94A91E07C01D830C83B7018881998178
:103E10000E945C22CE01DF91CF911F910F91FF9004
:103E2000EF900895FC011182108213821282158294
:103E300014826115710559F0FB0101900020E9F72A
:103E4000AF0141505109461B570B0C94F11E0895C8
:103E50000F931F93CF93DF938C01EB01FC018081C3
:103E60009181009799F0428153812C813D814217C5
:103E7000530750F0688179810E945C228C819D817A
:103E8000F8019583848313C00E94FA208881998168
:103E9000F801918380838A819B81938382838C81C3
:103EA0009D8195838483198218821B821A821D82C8
:103EB0001C82DF91CF911F910F910895CF93DF93D3
:103EC000EC01FB018617970761F060817181611534
:103ED000710529F0448155810E94F11E02C00E94A3
:103EE000A91ECE01DF91CF910895FC0111821082AD
:103EF00013821282158214820C945E1FCF93DF937B
:103F0000EC018617970711F00E94281FCE01DF9160
:103F1000CF910895CF93DF93EC016115710561F0A6
:103F2000FB0101900020E9F7AF0141505109461B08
:103F3000570B0E94F11E02C00E94A91ECE01DF9104
:103F4000CF910895EF92FF920F931F93CF93DF933A
:103F5000EC017B010C811D816115710511F480E07C
:103F600016C04115510591F0040F151FB8010E94AC
:103F7000D51E8823A1F3288139818C819D81B701C9
:103F8000820F931F0E945C221D830C8381E0DF91CE
:103F9000CF911F910F91FF90EF900895CF93DF93F2
:103FA00000D0CDB7DEB769831A8241E050E0BE0190
:103FB0006F5F7F4F0E94A21F0F900F90DF91CF91F4
:103FC0000895CF93DF93EC010E94CE1F811103C0AF
:103FD000CE010E94A91ECE01DF91CF9108950F93CB
:103FE0001F93CF93DF93EB0141155105E9F0209723
:103FF000D9F0FC016481758126173707A0F4621B94
:10400000730B8A01015011096017710708F48B01C5
:10401000FC0160817181620F731FA801CE010E94B3
:104020006322C00FD11F1882DF91CF911F910F9192
:1040300008950895991B79E004C0991F961708F018
:10404000961B881F7A95C9F780950895AA1BBB1BFC
:1040500051E107C0AA1FBB1FA617B70710F0A61B88
:10406000B70B881F991F5A95A9F780959095BC01A9
:10407000CD010895A1E21A2EAA1BBB1BFD010DC0A4
:10408000AA1FBB1FEE1FFF1FA217B307E407F50708
:1040900020F0A21BB30BE40BF50B661F771F881FE4
:1040A000991F1A9469F760957095809590959B017A
:1040B000AC01BD01CF010895EE0FFF1F0590F491F3
:1040C000E02D0994CF93DF938230910510F482E0C4
:1040D00090E0E0910E0AF0910F0A20E030E0A0E0BD
:1040E000B0E0309739F14081518148175907B8F055
:1040F0004817590771F482819381109729F013961C
:104100009C938E9312972CC090930F0A80930E0A63
:1041100027C02115310531F04217530718F0A901C6
:10412000DB0101C0EF019A01BD01DF010280F381D3
:10413000E02DD7CF21153105F9F0281B390B24309C
:10414000310580F48A819B816115710521F0FB01A5
:104150009383828304C090930F0A80930E0AFE011A
:10416000329644C0FE01E20FF31F819391932250D7
:104170003109398328833AC020910C0A30910D0A05
:10418000232B41F4209102013091030130930D0A59
:1041900020930C0A20910001309101012115310575
:1041A00041F42DB73EB74091040150910501241B05
:1041B000350BE0910C0AF0910D0AE217F307A0F419
:1041C0002E1B3F0B2817390778F0AC014E5F5F4F6D
:1041D0002417350748F04E0F5F1F50930D0A409388
:1041E0000C0A8193919302C0E0E0F0E0CF01DF91EF
:1041F000CF910895CF93DF93009709F487C0FC0116
:10420000329713821282C0910E0AD0910F0A209722
:1042100081F420813181280F391F80910C0A9091FF
:104220000D0A8217930779F5F0930D0AE0930C0AB3
:104230006DC0DE0120E030E0AE17BF0750F41296EB
:104240004D915C9113979D014115510509F1DA01DA
:10425000F3CFB383A28340815181840F951F8A17C6
:104260009B0771F48D919C911197840F951F029675
:104270009183808312968D919C911397938382836F
:104280002115310529F4F0930F0AE0930E0A3EC080
:10429000D9011396FC93EE9312974D915D91A40F63
:1042A000B51FEA17FB0779F480819181840F951F70
:1042B0000296D90111969C938E93828193811396D5
:1042C0009C938E931297E0E0F0E08A819B810097A7
:1042D00019F0FE01EC01F9CFCE0102962881398157
:1042E000820F931F20910C0A30910D0A281739076D
:1042F00069F4309729F410920F0A10920E0A02C046
:1043000013821282D0930D0AC0930C0ADF91CF91D1
:104310000895A0E0B0E0EFE8F1E20C947622EC0121
:10432000CB01209719F40E946220B8C0FE01E60F6D
:10433000F71F9E0122503109E217F30708F4ACC0C1
:10434000D9010D911C91119706171707B8F0053088
:10435000110508F49FC0A80144505109461757079A
:1043600008F498C002501109061B170B0193119312
:104370006D937C93CF010E94FA208CC05B01A01A40
:10438000B10A4E01800E911EA0910E0AB0910F0A43
:10439000612C712C60E070E0109709F449C0A815F9
:1043A000B905C9F5ED90FC901197670142E0C40E84
:1043B000D11CCA14DB0478F147018A189B086401F8
:1043C00042E0C40ED11C1296BC9012971396AC9189
:1043D000B5E0CB16D10440F0B282A38391828082F3
:1043E000D9018D939C9309C00E5F1F4F0E0D1F1DA9
:1043F000F90111830083EB2DFA2F6115710531F05E
:10440000DB011396FC93EE93129744C0F0930F0ACE
:10441000E0930E0A3FC06D917C9111976616770666
:1044200008F43B01BD0112960D90BC91A02DB4CFB4
:1044300060910C0A70910D0A68157905E9F4681607
:104440007906D0F4409100015091010141155105C8
:1044500041F44DB75EB76091040170910501461BB0
:10446000570BE417F507C0F4F0930D0AE0930C0A1C
:10447000F901918380830EC00E9462207C01009725
:1044800059F0A801BE010E945322CE010E94FA20D9
:10449000C70104C0CE0102C080E090E0CDB7DEB716
:1044A000EEE00C949222FB01DC0102C001900D921F
:1044B00041505040D8F70895FB01DC0101900D9266
:1044C0000020E1F70895FB01DC014150504048F025
:1044D00001900D920020C9F701C01D92415050403B
:1044E000E0F708952F923F924F925F926F927F92E2
:1044F0008F929F92AF92BF92CF92DF92EF92FF92F4
:104500000F931F93CF93DF93CDB7DEB7CA1BDB0B9F
:104510000FB6F894DEBF0FBECDBF09942A88398844
:1045200048885F846E847D848C849B84AA84B9844B
:10453000C884DF80EE80FD800C811B81AA81B98157
:10454000CE0FD11D0FB6F894DEBF0FBECDBFED016B
:064550000895F894FFCF6E
:104556000000100A8000FFFFFFFF4A616E65697266
:104566006F206465200046657665726569726F2006
:10457600646520004D6172636F20646520004162AE
:1045860072696C20646520004D61696F2064652046
:10459600004A756E686F20646520004A756C686F06
:1045A600206465200041676F73746F206465200086
:1045B600536574656D62726F20646520004E6F7678
:1045C600656D62726F206465200044657A656D6270
:1045D600726F20646520007A786A77666972730064
:1045E6002E2E2E20726561643A2000303030303035
:1045F6003030300045535345204F204D414C4449FF
:10460600544F004D4555205645544F4F4F4F523A43
:104616000045535345204F204D414C4449544F20AB
:104626004D45534D4F005645544F52205155452048
:104636004555204C492000494545454545454F4F80
:104646004F4F5757575757005265636F7264696EDD
:10465600672064656661756C740044656661756C97
:104666007420696E2053797374656D00564D4450FD
:10467600565F317C315F564D4450560D0A00696EC7
:10468600697469616C697A6174696F6E20666169C3
:104696006C65642100696E697469616C697A61741C
:1046A600696F6E20646F6E652E0020617469766F87
:1046B6007520656D2000446174613A20002F004822
:1046C6006F7261203A20002C20446F6D696E676F0F
:1046D600002C20536567756E6461002C205465724A
:1046E6006361002C20517561727461002C20517534
:1046F600696E7461002C205365787461002C205318
:10470600616261646F00214552524F5221203A0086
:104716002074656E746F75206174697661722065A8
:104726006D200021414C45525421203A20464F52DB
:104736004345204252555445205245474953544516
:1047460052212053797374656D206C6F636B2069F9
:104756006E3A00214552524F52203A00456E74651A
:1047660072206461746520696E2074686520666FC6
:10477600726D61742030302F30302F30302000457C
:104786006E7465722074696D6520696E2074686543
:1047960020666F726D61742030303A30303A3030B6
:1047A600200070617373776F72643A20004163630F
:1047B60065737365732044656E696564007573651A
:1047C600726E616D653A005370616161616161612C
:1047D60063652E2E2E2E206D6579207370616365BC
:1047E6003A20004E6F207370616365210041646456
:1047F60065640055736572206E6F742066696E6419
:1048060065640044656C65746564004368616E6741
:10481600656400757365726E616D65207065676F9E
:104826000070617373776F7264207065676F006DD7
:10483600656D6F726961206C6F63616C697A616422
:1048460061004D616D61652066697A2063617175ED
:10485600696E68612C2076656D206D65206C696DCA
:104866007061720053656E686120696E636F727263
:104876006574610041444D494E204D454E55202DED
:104886002073656C656374206F6E65206F70746944
:104896006F6E00456E747265692C2064617175696E
:1048A600206E696E6775656D206D6520746972612D
:1048B60000436F6E66696775726520446174652092
:1048C600616E642054696D65005265636F7264653C
:1048D600640053686F77696E672054696D6500439D
:1048E6006172726567616E646F206D656DEFBFBD45
:1048F6007269612E2E2E00436F6E636C75EFBFBD1D
:10490600646F2E004E756D65726F20646520757339
:1049160075EFBFBD72696F206E6F20736973746522
:104926006D613A004C6F6164696E672053797374E8
:10493600656D0045535345204F2041425553414430
:10494600494E484F204D45534D4F004C6F616469A9
:104956006E67206D656D6F727900446F6E650045F8
:10496600535345204F20414255534144494E484FE9
:10497600204D554C454B49007C0000000000520973
:1049860068090A0AA209AC0983090000000063103D
:10499600161D564D4450455F003A323A005F564D5B
:1049A60044504500564D4450435F005F564D4450B9
:1049B600430D0A004572726F723A20417474656D38
:1049C600707420746F207365742061207265616451
:1049D6002D6F6E6C79207661726961626C65206FED
:1049E6007220646174612074797065206E6F742022
:1049F600737570706F727465640D0A0000000000B4
:104A0600C21695166A1672168516941600000000D0
:104A16009A1B161D1C1B351B271B781B6E616E000F
:084A2600696E66006F76660000
:107E0000112484B714BE81FFF0D085E080938100F7
:107E100082E08093C00088E18093C10086E0809377
:107E2000C20080E18093C4008EE0C9D0259A86E02C
:107E300020E33CEF91E0309385002093840096BBD3
:107E4000B09BFECF1D9AA8958150A9F7CC24DD24C4
:107E500088248394B5E0AB2EA1E19A2EF3E0BF2EE7
:107E6000A2D0813461F49FD0082FAFD0023811F036
:107E7000013811F484E001C083E08DD089C08234E0
:107E800011F484E103C0853419F485E0A6D080C0E4
:107E9000853579F488D0E82EFF2485D0082F10E0AE
:107EA000102F00270E291F29000F111F8ED06801E7
:107EB0006FC0863521F484E090D080E0DECF843638
:107EC00009F040C070D06FD0082F6DD080E0C81688
:107ED00080E7D80618F4F601B7BEE895C0E0D1E017
:107EE00062D089930C17E1F7F0E0CF16F0E7DF06D8
:107EF00018F0F601B7BEE89568D007B600FCFDCFD4
:107F0000A601A0E0B1E02C9130E011968C91119780
:107F100090E0982F8827822B932B1296FA010C0160
:107F200087BEE89511244E5F5F4FF1E0A038BF0790
:107F300051F7F601A7BEE89507B600FCFDCF97BE46
:107F4000E89526C08437B1F42ED02DD0F82E2BD052
:107F50003CD0F601EF2C8F010F5F1F4F84911BD097
:107F6000EA94F801C1F70894C11CD11CFA94CF0C13
:107F7000D11C0EC0853739F428D08EE10CD085E9AC
:107F80000AD08FE07ACF813511F488E018D01DD067
:107F900080E101D065CF982F8091C00085FFFCCF94
:107FA0009093C60008958091C00087FFFCCF809118
:107FB000C00084FD01C0A8958091C6000895E0E648
:107FC000F0E098E1908380830895EDDF803219F02E
:107FD00088E0F5DFFFCF84E1DECF1F93182FE3DFCA
:107FE0001150E9F7F2DF1F91089580E0E8DFEE27F6
:047FF000FF270994CA
:027FFE00040479
:0400000300007E007B
:00000001FF